{
  "contractName": "FlipCoin",
  "abi": [
    {
      "inputs": [],
      "payable": false,
      "stateMutability": "nonpayable",
      "type": "constructor"
    },
    {
      "anonymous": false,
      "inputs": [
        {
          "indexed": true,
          "internalType": "address",
          "name": "player",
          "type": "address"
        },
        {
          "indexed": true,
          "internalType": "uint256",
          "name": "amount",
          "type": "uint256"
        },
        {
          "indexed": true,
          "internalType": "uint256",
          "name": "choice",
          "type": "uint256"
        }
      ],
      "name": "LogNewProbableQuery",
      "type": "event"
    },
    {
      "anonymous": false,
      "inputs": [
        {
          "indexed": true,
          "internalType": "address",
          "name": "previousOwner",
          "type": "address"
        },
        {
          "indexed": true,
          "internalType": "address",
          "name": "newOwner",
          "type": "address"
        }
      ],
      "name": "OwnershipTransferred",
      "type": "event"
    },
    {
      "anonymous": false,
      "inputs": [
        {
          "indexed": true,
          "internalType": "address",
          "name": "player",
          "type": "address"
        },
        {
          "indexed": true,
          "internalType": "uint256",
          "name": "amount",
          "type": "uint256"
        },
        {
          "indexed": false,
          "internalType": "bool",
          "name": "betStatus",
          "type": "bool"
        },
        {
          "indexed": true,
          "internalType": "bool",
          "name": "result",
          "type": "bool"
        }
      ],
      "name": "betResult",
      "type": "event"
    },
    {
      "anonymous": false,
      "inputs": [
        {
          "indexed": true,
          "internalType": "address",
          "name": "owner",
          "type": "address"
        },
        {
          "indexed": true,
          "internalType": "uint256",
          "name": "amount",
          "type": "uint256"
        }
      ],
      "name": "contractFunded",
      "type": "event"
    },
    {
      "anonymous": false,
      "inputs": [
        {
          "indexed": true,
          "internalType": "address",
          "name": "owner",
          "type": "address"
        },
        {
          "indexed": true,
          "internalType": "uint256",
          "name": "amount",
          "type": "uint256"
        }
      ],
      "name": "contractWithdraw",
      "type": "event"
    },
    {
      "anonymous": false,
      "inputs": [
        {
          "indexed": true,
          "internalType": "uint256",
          "name": "random_Number",
          "type": "uint256"
        }
      ],
      "name": "generatedRandomNumber",
      "type": "event"
    },
    {
      "anonymous": false,
      "inputs": [
        {
          "indexed": true,
          "internalType": "address",
          "name": "player",
          "type": "address"
        },
        {
          "indexed": true,
          "internalType": "uint256",
          "name": "amount",
          "type": "uint256"
        }
      ],
      "name": "playerWithdraw",
      "type": "event"
    },
    {
      "anonymous": false,
      "inputs": [
        {
          "indexed": true,
          "internalType": "bytes32",
          "name": "Id",
          "type": "bytes32"
        }
      ],
      "name": "proofVerificationFail",
      "type": "event"
    },
    {
      "constant": true,
      "inputs": [
        {
          "internalType": "bytes32",
          "name": "",
          "type": "bytes32"
        }
      ],
      "name": "bets",
      "outputs": [
        {
          "internalType": "address",
          "name": "player",
          "type": "address"
        },
        {
          "internalType": "uint256",
          "name": "amount",
          "type": "uint256"
        },
        {
          "internalType": "uint256",
          "name": "choice",
          "type": "uint256"
        },
        {
          "internalType": "bool",
          "name": "betFinished",
          "type": "bool"
        },
        {
          "internalType": "uint256",
          "name": "queryPrice",
          "type": "uint256"
        }
      ],
      "payable": false,
      "stateMutability": "view",
      "type": "function"
    },
    {
      "constant": true,
      "inputs": [],
      "name": "contractBalance",
      "outputs": [
        {
          "internalType": "uint256",
          "name": "",
          "type": "uint256"
        }
      ],
      "payable": false,
      "stateMutability": "view",
      "type": "function"
    },
    {
      "constant": true,
      "inputs": [],
      "name": "isOwner",
      "outputs": [
        {
          "internalType": "bool",
          "name": "",
          "type": "bool"
        }
      ],
      "payable": false,
      "stateMutability": "view",
      "type": "function"
    },
    {
      "constant": true,
      "inputs": [],
      "name": "minimumBet",
      "outputs": [
        {
          "internalType": "uint256",
          "name": "",
          "type": "uint256"
        }
      ],
      "payable": false,
      "stateMutability": "view",
      "type": "function"
    },
    {
      "constant": true,
      "inputs": [],
      "name": "owner",
      "outputs": [
        {
          "internalType": "address",
          "name": "",
          "type": "address"
        }
      ],
      "payable": false,
      "stateMutability": "view",
      "type": "function"
    },
    {
      "constant": true,
      "inputs": [
        {
          "internalType": "address",
          "name": "",
          "type": "address"
        }
      ],
      "name": "playersBalance",
      "outputs": [
        {
          "internalType": "uint256",
          "name": "",
          "type": "uint256"
        }
      ],
      "payable": false,
      "stateMutability": "view",
      "type": "function"
    },
    {
      "constant": true,
      "inputs": [],
      "name": "queryId",
      "outputs": [
        {
          "internalType": "bytes32",
          "name": "",
          "type": "bytes32"
        }
      ],
      "payable": false,
      "stateMutability": "view",
      "type": "function"
    },
    {
      "constant": false,
      "inputs": [],
      "name": "renounceOwnership",
      "outputs": [],
      "payable": false,
      "stateMutability": "nonpayable",
      "type": "function"
    },
    {
      "constant": false,
      "inputs": [
        {
          "internalType": "address",
          "name": "newOwner",
          "type": "address"
        }
      ],
      "name": "transferOwnership",
      "outputs": [],
      "payable": false,
      "stateMutability": "nonpayable",
      "type": "function"
    },
    {
      "constant": false,
      "inputs": [
        {
          "internalType": "uint256",
          "name": "_choice",
          "type": "uint256"
        }
      ],
      "name": "createBet",
      "outputs": [],
      "payable": true,
      "stateMutability": "payable",
      "type": "function"
    },
    {
      "constant": false,
      "inputs": [
        {
          "internalType": "bytes32",
          "name": "_myid",
          "type": "bytes32"
        },
        {
          "internalType": "string",
          "name": "_result",
          "type": "string"
        }
      ],
      "name": "__callback",
      "outputs": [],
      "payable": false,
      "stateMutability": "nonpayable",
      "type": "function"
    },
    {
      "constant": false,
      "inputs": [
        {
          "internalType": "bytes32",
          "name": "_queryId",
          "type": "bytes32"
        },
        {
          "internalType": "string",
          "name": "_result",
          "type": "string"
        },
        {
          "internalType": "bytes",
          "name": "_proof",
          "type": "bytes"
        }
      ],
      "name": "__callback",
      "outputs": [],
      "payable": false,
      "stateMutability": "nonpayable",
      "type": "function"
    },
    {
      "constant": false,
      "inputs": [
        {
          "internalType": "bytes32",
          "name": "_queryId",
          "type": "bytes32"
        },
        {
          "internalType": "address",
          "name": "_player",
          "type": "address"
        },
        {
          "internalType": "uint256",
          "name": "_totalAmount",
          "type": "uint256"
        },
        {
          "internalType": "uint256",
          "name": "_randomNumber",
          "type": "uint256"
        },
        {
          "internalType": "uint256",
          "name": "_choice",
          "type": "uint256"
        }
      ],
      "name": "_checkResult",
      "outputs": [],
      "payable": false,
      "stateMutability": "nonpayable",
      "type": "function"
    },
    {
      "constant": false,
      "inputs": [],
      "name": "fundContract",
      "outputs": [
        {
          "internalType": "uint256",
          "name": "",
          "type": "uint256"
        }
      ],
      "payable": true,
      "stateMutability": "payable",
      "type": "function"
    },
    {
      "constant": false,
      "inputs": [],
      "name": "payoutPlayer",
      "outputs": [
        {
          "internalType": "uint256",
          "name": "",
          "type": "uint256"
        }
      ],
      "payable": false,
      "stateMutability": "nonpayable",
      "type": "function"
    },
    {
      "constant": false,
      "inputs": [],
      "name": "payoutOwner",
      "outputs": [
        {
          "internalType": "uint256",
          "name": "",
          "type": "uint256"
        }
      ],
      "payable": false,
      "stateMutability": "nonpayable",
      "type": "function"
    }
  ],
  "bytecode": "0x60806040523480156200001157600080fd5b50600062000024620000eb60201b60201c565b9050806000806101000a81548173ffffffffffffffffffffffffffffffffffffffff021916908373ffffffffffffffffffffffffffffffffffffffff1602179055508073ffffffffffffffffffffffffffffffffffffffff16600073ffffffffffffffffffffffffffffffffffffffff167f8be0079c531659141344cd1fd0a4f28419497f9722a3daafe3b4186f6b6457e060405160405180910390a35066038d7ea4c68000600681905550620000e5603060f81b620000f360201b60201c565b62000b17565b600033905090565b600073ffffffffffffffffffffffffffffffffffffffff16600260009054906101000a900473ffffffffffffffffffffffffffffffffffffffff1673ffffffffffffffffffffffffffffffffffffffff161480620001835750600062000181600260009054906101000a900473ffffffffffffffffffffffffffffffffffffffff166200045960201b60201c565b145b156200019d576200019b60006200046460201b60201c565b505b600260009054906101000a900473ffffffffffffffffffffffffffffffffffffffff1673ffffffffffffffffffffffffffffffffffffffff166338cc48316040518163ffffffff1660e01b8152600401602060405180830381600087803b1580156200020857600080fd5b505af11580156200021d573d6000803e3d6000fd5b505050506040513d60208110156200023457600080fd5b810190808051906020019092919050505073ffffffffffffffffffffffffffffffffffffffff16600160009054906101000a900473ffffffffffffffffffffffffffffffffffffffff1673ffffffffffffffffffffffffffffffffffffffff16146200038357600260009054906101000a900473ffffffffffffffffffffffffffffffffffffffff1673ffffffffffffffffffffffffffffffffffffffff166338cc48316040518163ffffffff1660e01b8152600401602060405180830381600087803b1580156200030557600080fd5b505af11580156200031a573d6000803e3d6000fd5b505050506040513d60208110156200033157600080fd5b8101908080519060200190929190505050600160006101000a81548173ffffffffffffffffffffffffffffffffffffffff021916908373ffffffffffffffffffffffffffffffffffffffff1602179055505b600160009054906101000a900473ffffffffffffffffffffffffffffffffffffffff1673ffffffffffffffffffffffffffffffffffffffff1663688dcfd7826040518263ffffffff1660e01b815260040180827effffffffffffffffffffffffffffffffffffffffffffffffffffffffffffff19167effffffffffffffffffffffffffffffffffffffffffffffffffffffffffffff19168152602001915050600060405180830381600087803b1580156200043d57600080fd5b505af115801562000452573d6000803e3d6000fd5b5050505050565b6000813b9050919050565b6000620004766200047d60201b60201c565b9050919050565b600080620004a5731d3b2638a7cc9f2cb3d298a3da7a90b67e5506ed6200045960201b60201c565b11156200055157731d3b2638a7cc9f2cb3d298a3da7a90b67e5506ed600260006101000a81548173ffffffffffffffffffffffffffffffffffffffff021916908373ffffffffffffffffffffffffffffffffffffffff160217905550620005476040518060400160405280600b81526020017f6574685f6d61696e6e657400000000000000000000000000000000000000000081525062000a4c60201b60201c565b6001905062000a49565b60006200057873c03a2615d5efaf5f49f60b7bb6583eaec212fdf16200045960201b60201c565b1115620006245773c03a2615d5efaf5f49f60b7bb6583eaec212fdf1600260006101000a81548173ffffffffffffffffffffffffffffffffffffffff021916908373ffffffffffffffffffffffffffffffffffffffff1602179055506200061a6040518060400160405280600c81526020017f6574685f726f707374656e33000000000000000000000000000000000000000081525062000a4c60201b60201c565b6001905062000a49565b60006200064b73b7a07bcf2ba2f2703b24c0691b5278999c59ac7e6200045960201b60201c565b1115620006f75773b7a07bcf2ba2f2703b24c0691b5278999c59ac7e600260006101000a81548173ffffffffffffffffffffffffffffffffffffffff021916908373ffffffffffffffffffffffffffffffffffffffff160217905550620006ed6040518060400160405280600981526020017f6574685f6b6f76616e000000000000000000000000000000000000000000000081525062000a4c60201b60201c565b6001905062000a49565b60006200071e73146500cfd35b22e4a392fe0adc06de1a1368ed486200045960201b60201c565b1115620007ca5773146500cfd35b22e4a392fe0adc06de1a1368ed48600260006101000a81548173ffffffffffffffffffffffffffffffffffffffff021916908373ffffffffffffffffffffffffffffffffffffffff160217905550620007c06040518060400160405280600b81526020017f6574685f72696e6b65627900000000000000000000000000000000000000000081525062000a4c60201b60201c565b6001905062000a49565b6000620007f173a2998efd205fb9d4b4963afb70778d6354ad3a416200045960201b60201c565b11156200089d5773a2998efd205fb9d4b4963afb70778d6354ad3a41600260006101000a81548173ffffffffffffffffffffffffffffffffffffffff021916908373ffffffffffffffffffffffffffffffffffffffff160217905550620008936040518060400160405280600a81526020017f6574685f676f65726c690000000000000000000000000000000000000000000081525062000a4c60201b60201c565b6001905062000a49565b6000620008c4736f485c8bf6fc43ea212e93bbf8ce046c7f1cb4756200045960201b60201c565b11156200092a57736f485c8bf6fc43ea212e93bbf8ce046c7f1cb475600260006101000a81548173ffffffffffffffffffffffffffffffffffffffff021916908373ffffffffffffffffffffffffffffffffffffffff1602179055506001905062000a49565b6000620009517320e12a1f859b3feae5fb2a0a32c18f5a65555bbf6200045960201b60201c565b1115620009b7577320e12a1f859b3feae5fb2a0a32c18f5a65555bbf600260006101000a81548173ffffffffffffffffffffffffffffffffffffffff021916908373ffffffffffffffffffffffffffffffffffffffff1602179055506001905062000a49565b6000620009de7351efaf4c8b3c9afbd5ab9f4bbc82784ab6ef8faa6200045960201b60201c565b111562000a44577351efaf4c8b3c9afbd5ab9f4bbc82784ab6ef8faa600260006101000a81548173ffffffffffffffffffffffffffffffffffffffff021916908373ffffffffffffffffffffffffffffffffffffffff1602179055506001905062000a49565b600090505b90565b806003908051906020019062000a6492919062000a68565b5050565b828054600181600116156101000203166002900490600052602060002090601f016020900481019282601f1062000aab57805160ff191683800117855562000adc565b8280016001018555821562000adc579182015b8281111562000adb57825182559160200191906001019062000abe565b5b50905062000aeb919062000aef565b5090565b62000b1491905b8082111562000b1057600081600090555060010162000af6565b5090565b90565b614fbe8062000b276000396000f3fe6080604052600436106100f35760003560e01c80638f32d59b1161008a578063c38a8afd11610059578063c38a8afd1461057b578063c902c3ae146105a6578063dcb7914014610641578063f2fde38b1461066c576100f3565b80638f32d59b14610487578063ac793a60146104b6578063b3bf6cd7146104e4578063bd097e211461055d576100f3565b80637b6a1833116100c65780637b6a1833146103755780638a670113146103da5780638b7afe2e146104055780638da5cb5b14610430576100f3565b806327dc297e146100f857806338bbfa50146101ca5780633f1be4d414610333578063715018a61461035e575b600080fd5b34801561010457600080fd5b506101c86004803603604081101561011b57600080fd5b81019080803590602001909291908035906020019064010000000081111561014257600080fd5b82018360208201111561015457600080fd5b8035906020019184600183028401116401000000008311171561017657600080fd5b91908080601f016020809104026020016040519081016040528093929190818152602001838380828437600081840152601f19601f8201169050808301925050505050505091929192905050506106bd565b005b3480156101d657600080fd5b50610331600480360360608110156101ed57600080fd5b81019080803590602001909291908035906020019064010000000081111561021457600080fd5b82018360208201111561022657600080fd5b8035906020019184600183028401116401000000008311171561024857600080fd5b91908080601f016020809104026020016040519081016040528093929190818152602001838380828437600081840152601f19601f820116905080830192505050505050509192919290803590602001906401000000008111156102ab57600080fd5b8201836020820111156102bd57600080fd5b803590602001918460018302840111640100000000831117156102df57600080fd5b91908080601f016020809104026020016040519081016040528093929190818152602001838380828437600081840152601f19601f820116905080830192505050505050509192919290505050610700565b005b34801561033f57600080fd5b50610348610938565b6040518082815260200191505060405180910390f35b34801561036a57600080fd5b5061037361093e565b005b34801561038157600080fd5b506103c46004803603602081101561039857600080fd5b81019080803573ffffffffffffffffffffffffffffffffffffffff169060200190929190505050610a77565b6040518082815260200191505060405180910390f35b3480156103e657600080fd5b506103ef610a8f565b6040518082815260200191505060405180910390f35b34801561041157600080fd5b5061041a610c27565b6040518082815260200191505060405180910390f35b34801561043c57600080fd5b50610445610c2d565b604051808273ffffffffffffffffffffffffffffffffffffffff1673ffffffffffffffffffffffffffffffffffffffff16815260200191505060405180910390f35b34801561049357600080fd5b5061049c610c56565b604051808215151515815260200191505060405180910390f35b6104e2600480360360208110156104cc57600080fd5b8101908080359060200190929190505050610cb4565b005b3480156104f057600080fd5b5061055b600480360360a081101561050757600080fd5b8101908080359060200190929190803573ffffffffffffffffffffffffffffffffffffffff1690602001909291908035906020019092919080359060200190929190803590602001909291905050506110fb565b005b61056561156d565b6040518082815260200191505060405180910390f35b34801561058757600080fd5b506105906115d6565b6040518082815260200191505060405180910390f35b3480156105b257600080fd5b506105df600480360360208110156105c957600080fd5b81019080803590602001909291905050506115dc565b604051808673ffffffffffffffffffffffffffffffffffffffff1673ffffffffffffffffffffffffffffffffffffffff168152602001858152602001848152602001831515151581526020018281526020019550505050505060405180910390f35b34801561064d57600080fd5b5061065661163f565b6040518082815260200191505060405180910390f35b34801561067857600080fd5b506106bb6004803603602081101561068f57600080fd5b81019080803573ffffffffffffffffffffffffffffffffffffffff16906020019092919050505061184f565b005b6106fc828260006040519080825280601f01601f1916602001820160405280156106f65781602001600182028038833980820191505090505b50610700565b5050565b6107086118d5565b73ffffffffffffffffffffffffffffffffffffffff163373ffffffffffffffffffffffffffffffffffffffff161461073f57600080fd5b600061074c848484611bf5565b60ff1614156109055760006002836040516020018082805190602001908083835b60208310610790578051825260208201915060208101905060208303925061076d565b6001836020036101000a0380198251168184511680821785525050505050509050019150506040516020818303038152906040528051906020012060001c816107d557fe5b06905060008114806107e75750600181145b6107ed57fe5b807fc13d60fe9dffdb6908d2d446cd18134373a51db0738ee04f296eeb9128121cbc60405160405180910390a260006009600086815260200190815260200160002060000160009054906101000a900473ffffffffffffffffffffffffffffffffffffffff16905060006009600087815260200190815260200160002060010154905060006009600088815260200190815260200160002060020154905060006009600089815260200190815260200160002060040154905060006108ce826108c0600287611d2590919063ffffffff16565b611dab90919063ffffffff16565b90506108e4600285611d2590919063ffffffff16565b8111156108ed57fe5b6108fa89868389876110fb565b505050505050610933565b827f3487e280549f8291b0d7925045c609dc53762d600795125c19f7870b32f2991860405160405180910390a25b505050565b60085481565b610946610c56565b6109b8576040517f08c379a00000000000000000000000000000000000000000000000000000000081526004018080602001828103825260208152602001807f4f776e61626c653a2063616c6c6572206973206e6f7420746865206f776e657281525060200191505060405180910390fd5b600073ffffffffffffffffffffffffffffffffffffffff166000809054906101000a900473ffffffffffffffffffffffffffffffffffffffff1673ffffffffffffffffffffffffffffffffffffffff167f8be0079c531659141344cd1fd0a4f28419497f9722a3daafe3b4186f6b6457e060405160405180910390a360008060006101000a81548173ffffffffffffffffffffffffffffffffffffffff021916908373ffffffffffffffffffffffffffffffffffffffff160217905550565b600a6020528060005260406000206000915090505481565b6000610a99610c56565b610b0b576040517f08c379a00000000000000000000000000000000000000000000000000000000081526004018080602001828103825260208152602001807f4f776e61626c653a2063616c6c6572206973206e6f7420746865206f776e657281525060200191505060405180910390fd5b60006007541015610b84576040517f08c379a000000000000000000000000000000000000000000000000000000000815260040180806020018281038252601e8152602001807f436f6e747261637420646f6573206e6f7420686176652062616c616e6365000081525060200191505060405180910390fd5b6000600754905060006007819055503373ffffffffffffffffffffffffffffffffffffffff166108fc829081150290604051600060405180830381858888f19350505050158015610bd9573d6000803e3d6000fd5b50803373ffffffffffffffffffffffffffffffffffffffff167f82f1f08d0d9b1d46df8a71ee7b7b995dd44e25e019fc31fb42f88451d0ad5c7460405160405180910390a360075491505090565b60075481565b60008060009054906101000a900473ffffffffffffffffffffffffffffffffffffffff16905090565b60008060009054906101000a900473ffffffffffffffffffffffffffffffffffffffff1673ffffffffffffffffffffffffffffffffffffffff16610c98611df5565b73ffffffffffffffffffffffffffffffffffffffff1614905090565b6000811480610cc35750600181145b610d35576040517f08c379a000000000000000000000000000000000000000000000000000000000815260040180806020018281038252601f8152602001807f596f75206861766520746f2063686f6f73652048656164206f72205461696c0081525060200191505060405180910390fd5b600654341015610d90576040517f08c379a0000000000000000000000000000000000000000000000000000000008152600401808060200182810382526025815260200180614ee26025913960400191505060405180910390fd5b346007541015610deb576040517f08c379a0000000000000000000000000000000000000000000000000000000008152600401808060200182810382526022815260200180614f286022913960400191505060405180910390fd5b6000809050600062030d409050610e0482600183611dfd565b600881905550610e1f34600754611dab90919063ffffffff16565b6007819055506000831415610f94576040518060a001604052803373ffffffffffffffffffffffffffffffffffffffff16815260200134815260200160008152602001600015158152602001610ea96040518060400160405280600681526020017f52616e646f6d0000000000000000000000000000000000000000000000000000815250612398565b81525060096000600854815260200190815260200160002060008201518160000160006101000a81548173ffffffffffffffffffffffffffffffffffffffff021916908373ffffffffffffffffffffffffffffffffffffffff160217905550602082015181600101556040820151816002015560608201518160030160006101000a81548160ff021916908315150217905550608082015181600401559050506000343373ffffffffffffffffffffffffffffffffffffffff167fec35ac2d93f96ed515144c8e031a45117c872de56715ed64de286a892e7adc7660405160405180910390a46110f6565b6040518060a001604052803373ffffffffffffffffffffffffffffffffffffffff1681526020013481526020016001815260200160001515815260200161100f6040518060400160405280600681526020017f52616e646f6d0000000000000000000000000000000000000000000000000000815250612398565b81525060096000600854815260200190815260200160002060008201518160000160006101000a81548173ffffffffffffffffffffffffffffffffffffffff021916908373ffffffffffffffffffffffffffffffffffffffff160217905550602082015181600101556040820151816002015560608201518160030160006101000a81548160ff021916908315150217905550608082015181600401559050506001343373ffffffffffffffffffffffffffffffffffffffff167fec35ac2d93f96ed515144c8e031a45117c872de56715ed64de286a892e7adc7660405160405180910390a45b505050565b600015156009600087815260200190815260200160002060030160009054906101000a900460ff16151514611198576040517f08c379a00000000000000000000000000000000000000000000000000000000081526004018080602001828103825260148152602001807f42657420616c72656164792066696e697368656400000000000000000000000081525060200191505060405180910390fd5b600060096000878152602001908152602001600020905060018160030160006101000a81548160ff0219169083151502179055506000831480156111dc5750600082145b156112f55761123384600a60008873ffffffffffffffffffffffffffffffffffffffff1673ffffffffffffffffffffffffffffffffffffffff1681526020019081526020016000205461272c90919063ffffffff16565b600a60008773ffffffffffffffffffffffffffffffffffffffff1673ffffffffffffffffffffffffffffffffffffffff1681526020019081526020016000208190555060011515848673ffffffffffffffffffffffffffffffffffffffff167fbb541be60c4c126380ba7d4844fa71bd13c63163ddeb652daa8c5c4dbe98884d600960008b815260200190815260200160002060030160009054906101000a900460ff16604051808215151515815260200191505060405180910390a4611565565b6000831480156113055750600182145b156113a45761131f8460075461272c90919063ffffffff16565b60078190555060001515848673ffffffffffffffffffffffffffffffffffffffff167fbb541be60c4c126380ba7d4844fa71bd13c63163ddeb652daa8c5c4dbe98884d600960008b815260200190815260200160002060030160009054906101000a900460ff16604051808215151515815260200191505060405180910390a4611564565b6001831480156113b45750600182145b156114cd5761140b84600a60008873ffffffffffffffffffffffffffffffffffffffff1673ffffffffffffffffffffffffffffffffffffffff1681526020019081526020016000205461272c90919063ffffffff16565b600a60008773ffffffffffffffffffffffffffffffffffffffff1673ffffffffffffffffffffffffffffffffffffffff1681526020019081526020016000208190555060011515848673ffffffffffffffffffffffffffffffffffffffff167fbb541be60c4c126380ba7d4844fa71bd13c63163ddeb652daa8c5c4dbe98884d600960008b815260200190815260200160002060030160009054906101000a900460ff16604051808215151515815260200191505060405180910390a4611563565b6114e28460075461272c90919063ffffffff16565b60078190555060001515848673ffffffffffffffffffffffffffffffffffffffff167fbb541be60c4c126380ba7d4844fa71bd13c63163ddeb652daa8c5c4dbe98884d600960008b815260200190815260200160002060030160009054906101000a900460ff16604051808215151515815260200191505060405180910390a45b5b5b505050505050565b60006115843460075461272c90919063ffffffff16565b600781905550343373ffffffffffffffffffffffffffffffffffffffff167fff043843182fec3fbcbc695545b7652d340a2cf0919615adb04d98a00e7de8e260405160405180910390a3600754905090565b60065481565b60096020528060005260406000206000915090508060000160009054906101000a900473ffffffffffffffffffffffffffffffffffffffff16908060010154908060020154908060030160009054906101000a900460ff16908060040154905085565b600080600a60003373ffffffffffffffffffffffffffffffffffffffff1673ffffffffffffffffffffffffffffffffffffffff16815260200190815260200160002054116116f5576040517f08c379a00000000000000000000000000000000000000000000000000000000081526004018080602001828103825260128152602001807f4e6f7420656e6f7567682042616c616e6365000000000000000000000000000081525060200191505060405180910390fd5b6000600a60003373ffffffffffffffffffffffffffffffffffffffff1673ffffffffffffffffffffffffffffffffffffffff1681526020019081526020016000205490506000600a60003373ffffffffffffffffffffffffffffffffffffffff1673ffffffffffffffffffffffffffffffffffffffff168152602001908152602001600020819055503373ffffffffffffffffffffffffffffffffffffffff166108fc829081150290604051600060405180830381858888f193505050501580156117c4573d6000803e3d6000fd5b50803373ffffffffffffffffffffffffffffffffffffffff167f7804b809b0affd82f31b74be3ae3f91788a1016375791008c346590f19029b2c60405160405180910390a3600a60003373ffffffffffffffffffffffffffffffffffffffff1673ffffffffffffffffffffffffffffffffffffffff1681526020019081526020016000205491505090565b611857610c56565b6118c9576040517f08c379a00000000000000000000000000000000000000000000000000000000081526004018080602001828103825260208152602001807f4f776e61626c653a2063616c6c6572206973206e6f7420746865206f776e657281525060200191505060405180910390fd5b6118d2816127b4565b50565b60008073ffffffffffffffffffffffffffffffffffffffff16600260009054906101000a900473ffffffffffffffffffffffffffffffffffffffff1673ffffffffffffffffffffffffffffffffffffffff16148061195d5750600061195b600260009054906101000a900473ffffffffffffffffffffffffffffffffffffffff166128f8565b145b1561196e5761196c6000612903565b505b600260009054906101000a900473ffffffffffffffffffffffffffffffffffffffff1673ffffffffffffffffffffffffffffffffffffffff166338cc48316040518163ffffffff1660e01b8152600401602060405180830381600087803b1580156119d857600080fd5b505af11580156119ec573d6000803e3d6000fd5b505050506040513d6020811015611a0257600080fd5b810190808051906020019092919050505073ffffffffffffffffffffffffffffffffffffffff16600160009054906101000a900473ffffffffffffffffffffffffffffffffffffffff1673ffffffffffffffffffffffffffffffffffffffff1614611b4d57600260009054906101000a900473ffffffffffffffffffffffffffffffffffffffff1673ffffffffffffffffffffffffffffffffffffffff166338cc48316040518163ffffffff1660e01b8152600401602060405180830381600087803b158015611ad157600080fd5b505af1158015611ae5573d6000803e3d6000fd5b505050506040513d6020811015611afb57600080fd5b8101908080519060200190929190505050600160006101000a81548173ffffffffffffffffffffffffffffffffffffffff021916908373ffffffffffffffffffffffffffffffffffffffff1602179055505b600160009054906101000a900473ffffffffffffffffffffffffffffffffffffffff1673ffffffffffffffffffffffffffffffffffffffff1663c281d19e6040518163ffffffff1660e01b815260040160206040518083038186803b158015611bb557600080fd5b505afa158015611bc9573d6000803e3d6000fd5b505050506040513d6020811015611bdf57600080fd5b8101908080519060200190929190505050905090565b60007f4c0000000000000000000000000000000000000000000000000000000000000082600081518110611c2557fe5b602001015160f81c60f81b7effffffffffffffffffffffffffffffffffffffffffffffffffffffffffffff1916141580611cb857507f500000000000000000000000000000000000000000000000000000000000000082600181518110611c8857fe5b602001015160f81c60f81b7effffffffffffffffffffffffffffffffffffffffffffffffffffffffffffff191614155b80611ce45750600160ff1682600281518110611cd057fe5b602001015160f81c60f81b60f81c60ff1614155b15611cf25760019050611d1e565b6000611d07838686611d02612914565b6129b6565b905080611d18576002915050611d1e565b60009150505b9392505050565b600080831415611d385760009050611da5565b6000828402905082848281611d4957fe5b0414611da0576040517f08c379a0000000000000000000000000000000000000000000000000000000008152600401808060200182810382526021815260200180614f076021913960400191505060405180910390fd5b809150505b92915050565b6000611ded83836040518060400160405280601e81526020017f536166654d6174683a207375627472616374696f6e206f766572666c6f770000815250613061565b905092915050565b600033905090565b60008083118015611e0f575060208311155b611e1857600080fd5b600a84029350606060016040519080825280601f01601f191660200182016040528015611e545781602001600182028038833980820191505090505b5090508360f81b81600081518110611e6857fe5b60200101907effffffffffffffffffffffffffffffffffffffffffffffffffffffffffffff1916908160001a905350606060206040519080825280601f01601f191660200182016040528015611ecd5781602001600182028038833980820191505090505b509050606060206040519080825280601f01601f191660200182016040528015611f065781602001600182028038833980820191505090505b5090506000611f13613121565b905060208352424118600143034018602084015260208252806020830152606060206040519080825280601f01601f191660200182016040528015611f675781602001600182028038833980820191505090505b509050886020820152606060086040519080825280601f01601f191660200182016040528015611fa65781602001600182028038833980820191505090505b509050611fb98260186008846000613441565b50611fc2614dd5565b604051806080016040528087815260200188815260200186815260200184815250905060006120276040518060400160405280600681526020017f72616e646f6d0000000000000000000000000000000000000000000000000000815250838c6134a0565b9050606060086040519080825280601f01601f19166020018201604052801561205f5781602001600182028038833980820191505090505b50905060208401517f0100000000000000000000000000000000000000000000000000000000000000810460278301537e01000000000000000000000000000000000000000000000000000000000000810460268301537d010000000000000000000000000000000000000000000000000000000000810460258301537c0100000000000000000000000000000000000000000000000000000000810460248301537b01000000000000000000000000000000000000000000000000000000810460238301537a01000000000000000000000000000000000000000000000000000081046022830153790100000000000000000000000000000000000000000000000000810460218301537801000000000000000000000000000000000000000000000000810460208301535061238582828560016004811061219e57fe5b60200201516002876000600481106121b257fe5b60200201516040518082805190602001908083835b602083106121ea57805182526020820191506020810190506020830392506121c7565b6001836020036101000a038019825116818451168082178552505050505050905001915050602060405180830381855afa15801561222c573d6000803e3d6000fd5b5050506040513d602081101561224157600080fd5b81019080805190602001909291905050508760026004811061225f57fe5b60200201516040516020018085805190602001908083835b6020831061229a5780518252602082019150602081019050602083039250612277565b6001836020036101000a03801982511681845116808217855250505050505090500184805190602001908083835b602083106122eb57805182526020820191506020810190506020830392506122c8565b6001836020036101000a03801982511681845116808217855250505050505090500183815260200182805190602001908083835b60208310612342578051825260208201915060208101905060208303925061231f565b6001836020036101000a0380198251168184511680821785525050505050509050019450505050506040516020818303038152906040528051906020012061380f565b8199505050505050505050509392505050565b60008073ffffffffffffffffffffffffffffffffffffffff16600260009054906101000a900473ffffffffffffffffffffffffffffffffffffffff1673ffffffffffffffffffffffffffffffffffffffff1614806124205750600061241e600260009054906101000a900473ffffffffffffffffffffffffffffffffffffffff166128f8565b145b156124315761242f6000612903565b505b600260009054906101000a900473ffffffffffffffffffffffffffffffffffffffff1673ffffffffffffffffffffffffffffffffffffffff166338cc48316040518163ffffffff1660e01b8152600401602060405180830381600087803b15801561249b57600080fd5b505af11580156124af573d6000803e3d6000fd5b505050506040513d60208110156124c557600080fd5b810190808051906020019092919050505073ffffffffffffffffffffffffffffffffffffffff16600160009054906101000a900473ffffffffffffffffffffffffffffffffffffffff1673ffffffffffffffffffffffffffffffffffffffff161461261057600260009054906101000a900473ffffffffffffffffffffffffffffffffffffffff1673ffffffffffffffffffffffffffffffffffffffff166338cc48316040518163ffffffff1660e01b8152600401602060405180830381600087803b15801561259457600080fd5b505af11580156125a8573d6000803e3d6000fd5b505050506040513d60208110156125be57600080fd5b8101908080519060200190929190505050600160006101000a81548173ffffffffffffffffffffffffffffffffffffffff021916908373ffffffffffffffffffffffffffffffffffffffff1602179055505b600160009054906101000a900473ffffffffffffffffffffffffffffffffffffffff1673ffffffffffffffffffffffffffffffffffffffff1663524f3889836040518263ffffffff1660e01b81526004018080602001828103825283818151815260200191508051906020019080838360005b8381101561269e578082015181840152602081019050612683565b50505050905090810190601f1680156126cb5780820380516001836020036101000a031916815260200191505b5092505050602060405180830381600087803b1580156126ea57600080fd5b505af11580156126fe573d6000803e3d6000fd5b505050506040513d602081101561271457600080fd5b81019080805190602001909291905050509050919050565b6000808284019050838110156127aa576040517f08c379a000000000000000000000000000000000000000000000000000000000815260040180806020018281038252601b8152602001807f536166654d6174683a206164646974696f6e206f766572666c6f77000000000081525060200191505060405180910390fd5b8091505092915050565b600073ffffffffffffffffffffffffffffffffffffffff168173ffffffffffffffffffffffffffffffffffffffff16141561283a576040517f08c379a0000000000000000000000000000000000000000000000000000000008152600401808060200182810382526026815260200180614ebc6026913960400191505060405180910390fd5b8073ffffffffffffffffffffffffffffffffffffffff166000809054906101000a900473ffffffffffffffffffffffffffffffffffffffff1673ffffffffffffffffffffffffffffffffffffffff167f8be0079c531659141344cd1fd0a4f28419497f9722a3daafe3b4186f6b6457e060405160405180910390a3806000806101000a81548173ffffffffffffffffffffffffffffffffffffffff021916908373ffffffffffffffffffffffffffffffffffffffff16021790555050565b6000813b9050919050565b600061290d61382b565b9050919050565b606060038054600181600116156101000203166002900480601f0160208091040260200160405190810160405280929190818152602001828054600181600116156101000203166002900480156129ac5780601f10612981576101008083540402835291602001916129ac565b820191906000526020600020905b81548152906001019060200180831161298f57829003601f168201915b5050505050905090565b60008060206002876045815181106129ca57fe5b602001015160f81c60f81b60f81c60ff1601604401019050606060206040519080825280601f01601f191660200182016040528015612a185781602001600182028038833980820191505090505b509050612a2a87836020846000613441565b50600284876040516020018083805190602001908083835b60208310612a655780518252602082019150602081019050602083039250612a42565b6001836020036101000a038019825116818451168082178552505050505050905001828152602001925050506040516020818303038152906040526040518082805190602001908083835b60208310612ad35780518252602082019150602081019050602083039250612ab0565b6001836020036101000a038019825116818451168082178552505050505050905001915050602060405180830381855afa158015612b15573d6000803e3d6000fd5b5050506040513d6020811015612b2a57600080fd5b81019080805190602001909291905050506040516020018082815260200191505060405160208183030381529060405280519060200120818051906020012014612b7957600092505050613059565b60606002886001604986010181518110612b8f57fe5b602001015160f81c60f81b60f81c60ff16016040519080825280601f01601f191660200182016040528015612bd35781602001600182028038833980820191505090505b509050612be888604985018351846000613441565b50612cb36002826040518082805190602001908083835b60208310612c225780518252602082019150602081019050602083039250612bff565b6001836020036101000a038019825116818451168082178552505050505050905001915050602060405180830381855afa158015612c64573d6000803e3d6000fd5b5050506040513d6020811015612c7957600080fd5b8101908080519060200190929190505050878a6008602088010181518110612c9d57fe5b602001015160f81c60f81b60f81c60ff16613d82565b612cc35760009350505050613059565b606060296040519080825280601f01601f191660200182016040528015612cf95781602001600182028038833980820191505090505b509050612d0e89602086016029846000613441565b506060604080519080825280601f01601f191660200182016040528015612d445781602001600182028038833980820191505090505b5090506000604184516029602089010101019050612d6a8b604083036040856000613441565b5060006002836040518082805190602001908083835b60208310612da35780518252602082019150602081019050602083039250612d80565b6001836020036101000a038019825116818451168082178552505050505050905001915050602060405180830381855afa158015612de5573d6000803e3d6000fd5b5050506040513d6020811015612dfa57600080fd5b8101908080519060200190929190505050905083816040516020018083805190602001908083835b60208310612e455780518252602082019150602081019050602083039250612e22565b6001836020036101000a0380198251168184511680821785525050505050509050018281526020019250505060405160208183030381529060405280519060200120600460008d8152602001908152602001600020541415612ebd57600460008c815260200190815260200160002060009055612ecd565b6000975050505050505050613059565b606060496040519080825280601f01601f191660200182016040528015612f035781602001600182028038833980820191505090505b509050612f158d896049846000613441565b50612fbe6002826040518082805190602001908083835b60208310612f4f5780518252602082019150602081019050602083039250612f2c565b6001836020036101000a038019825116818451168082178552505050505050905001915050602060405180830381855afa158015612f91573d6000803e3d6000fd5b5050506040513d6020811015612fa657600080fd5b81019080805190602001909291905050508786613e32565b612fd357600098505050505050505050613059565b6005600083815260200190815260200160002060009054906101000a900460ff1661302d576130028d84613ff0565b6005600084815260200190815260200160002060006101000a81548160ff0219169083151502179055505b6005600083815260200190815260200160002060009054906101000a900460ff16985050505050505050505b949350505050565b600083831115829061310e576040517f08c379a00000000000000000000000000000000000000000000000000000000081526004018080602001828103825283818151815260200191508051906020019080838360005b838110156130d35780820151818401526020810190506130b8565b50505050905090810190601f1680156131005780820380516001836020036101000a031916815260200191505b509250505060405180910390fd5b5060008385039050809150509392505050565b60008073ffffffffffffffffffffffffffffffffffffffff16600260009054906101000a900473ffffffffffffffffffffffffffffffffffffffff1673ffffffffffffffffffffffffffffffffffffffff1614806131a9575060006131a7600260009054906101000a900473ffffffffffffffffffffffffffffffffffffffff166128f8565b145b156131ba576131b86000612903565b505b600260009054906101000a900473ffffffffffffffffffffffffffffffffffffffff1673ffffffffffffffffffffffffffffffffffffffff166338cc48316040518163ffffffff1660e01b8152600401602060405180830381600087803b15801561322457600080fd5b505af1158015613238573d6000803e3d6000fd5b505050506040513d602081101561324e57600080fd5b810190808051906020019092919050505073ffffffffffffffffffffffffffffffffffffffff16600160009054906101000a900473ffffffffffffffffffffffffffffffffffffffff1673ffffffffffffffffffffffffffffffffffffffff161461339957600260009054906101000a900473ffffffffffffffffffffffffffffffffffffffff1673ffffffffffffffffffffffffffffffffffffffff166338cc48316040518163ffffffff1660e01b8152600401602060405180830381600087803b15801561331d57600080fd5b505af1158015613331573d6000803e3d6000fd5b505050506040513d602081101561334757600080fd5b8101908080519060200190929190505050600160006101000a81548173ffffffffffffffffffffffffffffffffffffffff021916908373ffffffffffffffffffffffffffffffffffffffff1602179055505b600160009054906101000a900473ffffffffffffffffffffffffffffffffffffffff1673ffffffffffffffffffffffffffffffffffffffff1663abaa5f3e6040518163ffffffff1660e01b815260040160206040518083038186803b15801561340157600080fd5b505afa158015613415573d6000803e3d6000fd5b505050506040513d602081101561342b57600080fd5b8101908080519060200190929190505050905090565b606060008285019050808451101561345857600080fd5b600086602001905060008460200190505b8688602001018210156134915781890151808288015250602082019150602081019050613469565b85935050505095945050505050565b60008073ffffffffffffffffffffffffffffffffffffffff16600260009054906101000a900473ffffffffffffffffffffffffffffffffffffffff1673ffffffffffffffffffffffffffffffffffffffff16148061352857506000613526600260009054906101000a900473ffffffffffffffffffffffffffffffffffffffff166128f8565b145b15613539576135376000612903565b505b600260009054906101000a900473ffffffffffffffffffffffffffffffffffffffff1673ffffffffffffffffffffffffffffffffffffffff166338cc48316040518163ffffffff1660e01b8152600401602060405180830381600087803b1580156135a357600080fd5b505af11580156135b7573d6000803e3d6000fd5b505050506040513d60208110156135cd57600080fd5b810190808051906020019092919050505073ffffffffffffffffffffffffffffffffffffffff16600160009054906101000a900473ffffffffffffffffffffffffffffffffffffffff1673ffffffffffffffffffffffffffffffffffffffff161461371857600260009054906101000a900473ffffffffffffffffffffffffffffffffffffffff1673ffffffffffffffffffffffffffffffffffffffff166338cc48316040518163ffffffff1660e01b8152600401602060405180830381600087803b15801561369c57600080fd5b505af11580156136b0573d6000803e3d6000fd5b505050506040513d60208110156136c657600080fd5b8101908080519060200190929190505050600160006101000a81548173ffffffffffffffffffffffffffffffffffffffff021916908373ffffffffffffffffffffffffffffffffffffffff1602179055505b6060600460405190808252806020026020018201604052801561374f57816020015b606081526020019060019003908161373a5790505b5090508360006004811061375f57fe5b60200201518160008151811061377157fe5b60200260200101819052508360016004811061378957fe5b60200201518160018151811061379b57fe5b6020026020010181905250836002600481106137b357fe5b6020020151816002815181106137c557fe5b6020026020010181905250836003600481106137dd57fe5b6020020151816003815181106137ef57fe5b6020026020010181905250613805858285614408565b9150509392505050565b8060046000848152602001908152602001600020819055505050565b60008061384b731d3b2638a7cc9f2cb3d298a3da7a90b67e5506ed6128f8565b11156138ed57731d3b2638a7cc9f2cb3d298a3da7a90b67e5506ed600260006101000a81548173ffffffffffffffffffffffffffffffffffffffff021916908373ffffffffffffffffffffffffffffffffffffffff1602179055506138e46040518060400160405280600b81526020017f6574685f6d61696e6e657400000000000000000000000000000000000000000081525061496e565b60019050613d7f565b600061390c73c03a2615d5efaf5f49f60b7bb6583eaec212fdf16128f8565b11156139ae5773c03a2615d5efaf5f49f60b7bb6583eaec212fdf1600260006101000a81548173ffffffffffffffffffffffffffffffffffffffff021916908373ffffffffffffffffffffffffffffffffffffffff1602179055506139a56040518060400160405280600c81526020017f6574685f726f707374656e33000000000000000000000000000000000000000081525061496e565b60019050613d7f565b60006139cd73b7a07bcf2ba2f2703b24c0691b5278999c59ac7e6128f8565b1115613a6f5773b7a07bcf2ba2f2703b24c0691b5278999c59ac7e600260006101000a81548173ffffffffffffffffffffffffffffffffffffffff021916908373ffffffffffffffffffffffffffffffffffffffff160217905550613a666040518060400160405280600981526020017f6574685f6b6f76616e000000000000000000000000000000000000000000000081525061496e565b60019050613d7f565b6000613a8e73146500cfd35b22e4a392fe0adc06de1a1368ed486128f8565b1115613b305773146500cfd35b22e4a392fe0adc06de1a1368ed48600260006101000a81548173ffffffffffffffffffffffffffffffffffffffff021916908373ffffffffffffffffffffffffffffffffffffffff160217905550613b276040518060400160405280600b81526020017f6574685f72696e6b65627900000000000000000000000000000000000000000081525061496e565b60019050613d7f565b6000613b4f73a2998efd205fb9d4b4963afb70778d6354ad3a416128f8565b1115613bf15773a2998efd205fb9d4b4963afb70778d6354ad3a41600260006101000a81548173ffffffffffffffffffffffffffffffffffffffff021916908373ffffffffffffffffffffffffffffffffffffffff160217905550613be86040518060400160405280600a81526020017f6574685f676f65726c690000000000000000000000000000000000000000000081525061496e565b60019050613d7f565b6000613c10736f485c8bf6fc43ea212e93bbf8ce046c7f1cb4756128f8565b1115613c7457736f485c8bf6fc43ea212e93bbf8ce046c7f1cb475600260006101000a81548173ffffffffffffffffffffffffffffffffffffffff021916908373ffffffffffffffffffffffffffffffffffffffff16021790555060019050613d7f565b6000613c937320e12a1f859b3feae5fb2a0a32c18f5a65555bbf6128f8565b1115613cf7577320e12a1f859b3feae5fb2a0a32c18f5a65555bbf600260006101000a81548173ffffffffffffffffffffffffffffffffffffffff021916908373ffffffffffffffffffffffffffffffffffffffff16021790555060019050613d7f565b6000613d167351efaf4c8b3c9afbd5ab9f4bbc82784ab6ef8faa6128f8565b1115613d7a577351efaf4c8b3c9afbd5ab9f4bbc82784ab6ef8faa600260006101000a81548173ffffffffffffffffffffffffffffffffffffffff021916908373ffffffffffffffffffffffffffffffffffffffff16021790555060019050613d7f565b600090505b90565b6000806001905082845114613d9657600080fd5b60008090505b83811015613e2657848181518110613db057fe5b602001015160f81c60f81b7effffffffffffffffffffffffffffffffffffffffffffffffffffffffffffff1916868260208110613de957fe5b1a60f81b7effffffffffffffffffffffffffffffffffffffffffffffffffffffffffffff191614613e1957600091505b8080600101915050613d9c565b50809150509392505050565b6000806000806000606060206040519080825280601f01601f191660200182016040528015613e705781602001600182028038833980820191505090505b5090506000602089600381518110613e8457fe5b602001015160f81c60f81b60f81c60ff16036004019050613eaa89826020856000613441565b9150606060206040519080825280601f01601f191660200182016040528015613ee25781602001600182028038833980820191505090505b509050602282019150613f1e8a60208c6001860381518110613f0057fe5b602001015160f81c60f81b60f81c60ff160384016020846000613441565b90506020830151945060208101519350613f3b8b601b8787614988565b80975081985050508573ffffffffffffffffffffffffffffffffffffffff16898051906020012060001c73ffffffffffffffffffffffffffffffffffffffff161415613f91576001975050505050505050613fe9565b613f9e8b601c8787614988565b80975081985050508573ffffffffffffffffffffffffffffffffffffffff16898051906020012060001c73ffffffffffffffffffffffffffffffffffffffff16149750505050505050505b9392505050565b6000806060600285600186018151811061400657fe5b602001015160f81c60f81b60f81c60ff16016040519080825280601f01601f19166020018201604052801561404a5781602001600182028038833980820191505090505b50905061405c85858351846000613441565b506060604080519080825280601f01601f1916602001820160405280156140925781602001600182028038833980820191505090505b5090506140a58660046040846000613441565b50606060626040519080825280601f01601f1916602001820160405280156140dc5781602001600182028038833980820191505090505b509050600160f81b816000815181106140f157fe5b60200101907effffffffffffffffffffffffffffffffffffffffffffffffffffffffffffff1916908160001a90535061413287604188036041846001613441565b5060606040518060400160405280602081526020017ffd94fa71bc0ba10d39d464d0d8f465efeef0a2764e3887fcc9df41ded20f505c815250905061417d8160006020856042613441565b506142266002836040518082805190602001908083835b602083106141b75780518252602082019150602081019050602083039250614194565b6001836020036101000a038019825116818451168082178552505050505050905001915050602060405180830381855afa1580156141f9573d6000803e3d6000fd5b5050506040513d602081101561420e57600080fd5b81019080805190602001909291905050508585613e32565b94508461423b57600095505050505050614402565b6060604051806060016040528060408152602001614f4a604091399050606060426040519080825280601f01601f19166020018201604052801561428e5781602001600182028038833980820191505090505b50905060fe60f81b816000815181106142a357fe5b60200101907effffffffffffffffffffffffffffffffffffffffffffffffffffffffffffff1916908160001a9053506142e28a60036041846001613441565b50606060028b6045815181106142f457fe5b602001015160f81c60f81b60f81c60ff16016040519080825280601f01601f1916602001820160405280156143385781602001600182028038833980820191505090505b50905061434b8b60448351846000613441565b506143f46002836040518082805190602001908083835b602083106143855780518252602082019150602081019050602083039250614362565b6001836020036101000a038019825116818451168082178552505050505050905001915050602060405180830381855afa1580156143c7573d6000803e3d6000fd5b5050506040513d60208110156143dc57600080fd5b81019080805190602001909291905050508285613e32565b975087985050505050505050505b92915050565b60008073ffffffffffffffffffffffffffffffffffffffff16600260009054906101000a900473ffffffffffffffffffffffffffffffffffffffff1673ffffffffffffffffffffffffffffffffffffffff1614806144905750600061448e600260009054906101000a900473ffffffffffffffffffffffffffffffffffffffff166128f8565b145b156144a15761449f6000612903565b505b600260009054906101000a900473ffffffffffffffffffffffffffffffffffffffff1673ffffffffffffffffffffffffffffffffffffffff166338cc48316040518163ffffffff1660e01b8152600401602060405180830381600087803b15801561450b57600080fd5b505af115801561451f573d6000803e3d6000fd5b505050506040513d602081101561453557600080fd5b810190808051906020019092919050505073ffffffffffffffffffffffffffffffffffffffff16600160009054906101000a900473ffffffffffffffffffffffffffffffffffffffff1673ffffffffffffffffffffffffffffffffffffffff161461468057600260009054906101000a900473ffffffffffffffffffffffffffffffffffffffff1673ffffffffffffffffffffffffffffffffffffffff166338cc48316040518163ffffffff1660e01b8152600401602060405180830381600087803b15801561460457600080fd5b505af1158015614618573d6000803e3d6000fd5b505050506040513d602081101561462e57600080fd5b8101908080519060200190929190505050600160006101000a81548173ffffffffffffffffffffffffffffffffffffffff021916908373ffffffffffffffffffffffffffffffffffffffff1602179055505b6000600160009054906101000a900473ffffffffffffffffffffffffffffffffffffffff1673ffffffffffffffffffffffffffffffffffffffff16632ef3accc86856040518363ffffffff1660e01b81526004018080602001838152602001828103825284818151815260200191508051906020019080838360005b838110156147175780820151818401526020810190506146fc565b50505050905090810190601f1680156147445780820380516001836020036101000a031916815260200191505b509350505050602060405180830381600087803b15801561476457600080fd5b505af1158015614778573d6000803e3d6000fd5b505050506040513d602081101561478e57600080fd5b81019080805190602001909291905050509050823a02670de0b6b3a7640000018111156147c1576000801b915050614967565b60606147cc856149cc565b9050600160009054906101000a900473ffffffffffffffffffffffffffffffffffffffff1673ffffffffffffffffffffffffffffffffffffffff1663c55c1cb68360008985896040518663ffffffff1660e01b8152600401808581526020018060200180602001848152602001838103835286818151815260200191508051906020019080838360005b83811015614871578082015181840152602081019050614856565b50505050905090810190601f16801561489e5780820380516001836020036101000a031916815260200191505b50838103825285818151815260200191508051906020019080838360005b838110156148d75780820151818401526020810190506148bc565b50505050905090810190601f1680156149045780820380516001836020036101000a031916815260200191505b5096505050505050506020604051808303818588803b15801561492657600080fd5b505af115801561493a573d6000803e3d6000fd5b50505050506040513d602081101561495157600080fd5b8101908080519060200190929190505050925050505b9392505050565b8060039080519060200190614984929190614dfc565b5050565b60008060008060405188815287602082015286604082015285606082015260208160808360006001610bb8f192508051915050818193509350505094509492505050565b60606149d6614a4c565b6149de614e7c565b6149ea81610400614a58565b6149f381614aa2565b60008090505b8351811015614a3557614a28848281518110614a1157fe5b602002602001015183614ab090919063ffffffff16565b80806001019150506149f9565b50614a3f81614ad5565b8060000151915050919050565b60405180590338823950565b6000819050600060208281614a6957fe5b0614614a825760208181614a7957fe5b06602003810190505b808360200181815250506040518084526000815281810160405250505050565b614aad816004614ae3565b50565b614abd8260028351614b04565b614ad08183614c4490919063ffffffff16565b505050565b614ae0816007614ae3565b50565b614b00601f60058360ff16901b1783614cef90919063ffffffff16565b5050565b60178111614b3057614b2b8160058460ff16901b60ff161784614cef90919063ffffffff16565b614c3f565b60ff8111614b7157614b55601860058460ff16901b1784614cef90919063ffffffff16565b614b6b81600185614d2f9092919063ffffffff16565b50614c3e565b61ffff8111614bb357614b97601960058460ff16901b1784614cef90919063ffffffff16565b614bad81600285614d2f9092919063ffffffff16565b50614c3d565b63ffffffff8111614bf757614bdb601a60058460ff16901b1784614cef90919063ffffffff16565b614bf181600485614d2f9092919063ffffffff16565b50614c3c565b67ffffffffffffffff8111614c3b57614c23601b60058460ff16901b1784614cef90919063ffffffff16565b614c3981600885614d2f9092919063ffffffff16565b505b5b5b5b5b505050565b614c4c614e7c565b82602001518360000151518351011115614c7c57614c7b836002614c7586602001518651614d96565b02614db2565b5b60008060008451905085518051602081830101945086518101825260208701935050505b60208110614cc35781518352602083019250602082019150602081039050614ca0565b60006001826020036101000a039050801983511681855116818117865250508694505050505092915050565b81602001516001836000015151011115614d1557614d14826002846020015102614db2565b5b815180516020818301018381536001820183525050505050565b614d37614e7c565b836020015184600001515183011115614d6557614d64846002614d5e876020015186614d96565b02614db2565b5b60006001836101000a0390508451805184818301018684198251161781528582018352505050849150509392505050565b600081831115614da857829050614dac565b8190505b92915050565b606082600001519050614dc58383614a58565b614dcf8382614c44565b50505050565b60405180608001604052806004905b6060815260200190600190039081614de45790505090565b828054600181600116156101000203166002900490600052602060002090601f016020900481019282601f10614e3d57805160ff1916838001178555614e6b565b82800160010185558215614e6b579182015b82811115614e6a578251825591602001919060010190614e4f565b5b509050614e789190614e96565b5090565b604051806040016040528060608152602001600081525090565b614eb891905b80821115614eb4576000816000905550600101614e9c565b5090565b9056fe4f776e61626c653a206e6577206f776e657220697320746865207a65726f20616464726573734d696e696d756d206265742068617320746f2062652061626f766520302e30303120455448536166654d6174683a206d756c7469706c69636174696f6e206f766572666c6f774e6f7420656e6f7567682062616c616e636520696e2074686520636f6e74726163747fb956469c5c9b89840d55b43537e66a98dd4811ea0a27224272c2e5622911e8537a2f8e86a46baec82864e98dd01e9ccc2f8bc5dfc9cbe5a91a290498dd96e4a265627a7a7231582070383b34b4829697e65a78b93367bd70935e33312d172c6a28bf10c8f304fedf64736f6c63430005100032",
  "source": "// SPDX-License-Identifier: MIT\r\npragma solidity >=0.5.0 <0.7.0;\r\n\r\nimport '../node_modules/@openzeppelin/contracts/math/SafeMath.sol';\r\nimport '../node_modules/@openzeppelin/contracts/ownership/Ownable.sol';\r\nimport './provableAPI.sol';\r\n\r\ncontract FlipCoin is Ownable, usingProvable{\r\n    \r\n    using SafeMath for uint;\r\n    \r\n    uint public minimumBet;\r\n    uint public contractBalance;\r\n    bytes32 public queryId;\r\n    uint private constant NUM_RANDOM_BYTES_REQUESTED = 1;\r\n\r\n\r\n    struct Bet {\r\n        address player;\r\n        uint amount;\r\n        uint choice;\r\n        bool betFinished;\r\n        uint queryPrice;\r\n    }\r\n\r\n    mapping (bytes32 => Bet) public bets;\r\n    mapping (address => uint) public playersBalance;\r\n\r\n    constructor () public {\r\n        minimumBet = 1000000000000000;\r\n        provable_setProof(proofType_Ledger);\r\n    }\r\n\r\n    event LogNewProbableQuery(address indexed player, \r\n                                uint indexed amount,  \r\n                                uint indexed choice);\r\n    event generatedRandomNumber(uint indexed random_Number);\r\n    event betResult(address indexed player, \r\n                    uint indexed amount, \r\n                    bool betStatus,\r\n                    bool indexed result);\r\n    event contractFunded(address indexed owner, uint indexed amount);\r\n    event playerWithdraw(address indexed player, uint indexed amount);\r\n    event contractWithdraw(address indexed owner, uint indexed amount);\r\n    event proofVerificationFail(bytes32 indexed Id);\r\n\r\n\r\n    function createBet (uint _choice) public payable{\r\n        require (_choice == 0 || _choice == 1, 'You have to choose Head or Tail');\r\n        require (msg.value >= minimumBet, 'Minimum bet has to be above 0.001 ETH');\r\n        require (contractBalance >= msg.value, 'Not enough balance in the contract');\r\n        \r\n        uint QUERY_EXECUTION_DELAY = 0;\r\n        uint GAS_FOR_CALLBACK = 200000;\r\n\r\n        queryId = provable_newRandomDSQuery(QUERY_EXECUTION_DELAY, NUM_RANDOM_BYTES_REQUESTED, GAS_FOR_CALLBACK);\r\n        contractBalance = contractBalance.sub(msg.value);\r\n\r\n        if(_choice == 0){\r\n            bets[queryId] = Bet(msg.sender, msg.value, 0, false, provable_getPrice(\"Random\"));\r\n            emit LogNewProbableQuery(msg.sender, msg.value, 0);\r\n        } else {\r\n            bets[queryId] = Bet(msg.sender, msg.value, 1, false, provable_getPrice(\"Random\"));\r\n            emit LogNewProbableQuery(msg.sender, msg.value, 1);\r\n        }\r\n    }\r\n\r\n    function __callback (\r\n        bytes32 _queryId, \r\n        string memory _result, \r\n        bytes memory _proof) public {\r\n        require (msg.sender == provable_cbAddress());\r\n\r\n        if (provable_randomDS_proofVerify__returnCode(_queryId, _result, _proof) == 0){\r\n            uint randomNumber = uint(keccak256(abi.encodePacked(_result))) % 2;\r\n            assert(randomNumber == 0 || randomNumber == 1);\r\n            emit generatedRandomNumber(randomNumber);\r\n            address _player = bets[_queryId].player;\r\n            uint _amount = bets[_queryId].amount;\r\n            uint _choice = bets[_queryId].choice;\r\n            uint _oracleCost = bets[_queryId].queryPrice;\r\n            uint _totalAmount = _amount.mul(2).sub(_oracleCost);\r\n            assert(_totalAmount <= _amount.mul(2));\r\n            _checkResult(_queryId, _player, _totalAmount, randomNumber, _choice);\r\n        }\r\n        else {\r\n            emit proofVerificationFail(_queryId);\r\n        }\r\n    }\r\n\r\n    function _checkResult (\r\n        bytes32 _queryId,\r\n        address _player,\r\n        uint _totalAmount,\r\n        uint _randomNumber,\r\n        uint _choice) public {\r\n        require(bets[_queryId].betFinished == false, 'Bet already finished');\r\n        \r\n        Bet storage bet = bets[_queryId];\r\n        bet.betFinished = true;\r\n\r\n        //whoever wins pays the Oracle fee\r\n        if (_randomNumber == 0 && _choice == 0) {\r\n            playersBalance[_player] = playersBalance[_player].add(_totalAmount);\r\n            emit betResult(_player, _totalAmount, bets[_queryId].betFinished, true);\r\n        }\r\n        else if (_randomNumber == 0 && _choice == 1) {\r\n            contractBalance = contractBalance.add(_totalAmount);\r\n            emit betResult(_player, _totalAmount, bets[_queryId].betFinished, false);\r\n        }\r\n        else if (_randomNumber == 1 && _choice == 1) {\r\n            playersBalance[_player] = playersBalance[_player].add(_totalAmount);\r\n            emit betResult(_player, _totalAmount, bets[_queryId].betFinished, true);\r\n        }\r\n        else {\r\n            contractBalance = contractBalance.add(_totalAmount);\r\n            emit betResult(_player, _totalAmount, bets[_queryId].betFinished, false);\r\n        }\r\n    }\r\n\r\n    function fundContract () public payable returns (uint){\r\n        contractBalance = contractBalance.add(msg.value);\r\n        emit contractFunded(msg.sender, msg.value);\r\n        return contractBalance;\r\n    }\r\n    \r\n    function payoutPlayer () public returns (uint){\r\n        require(playersBalance[msg.sender] > 0, 'Not enough Balance');\r\n        uint amount = playersBalance[msg.sender];\r\n        playersBalance[msg.sender] = 0;\r\n        msg.sender.transfer(amount);\r\n        emit playerWithdraw(msg.sender, amount);\r\n        return playersBalance[msg.sender];\r\n    }\r\n    \r\n    function payoutOwner () public onlyOwner() returns (uint){\r\n        require(contractBalance >= 0, 'Contract does not have balance');\r\n        uint amount = contractBalance;\r\n        contractBalance = 0;\r\n        msg.sender.transfer(amount);\r\n        emit contractWithdraw(msg.sender, amount);\r\n        return contractBalance;\r\n    }\r\n}",
  "sourcePath": "C:/Users/urbat/Documents/Programming/fLIP_COIN/contracts/FlipCoin.sol",
  "compiler": {
    "name": "solc",
    "version": "0.5.16+commit.9c3226ce.Emscripten.clang"
  },
  "schemaVersion": "3.3.4",
  "updatedAt": "2021-06-01T13:26:40.360Z",
  "devdoc": {
    "methods": {
      "__callback(bytes32,string)": {
        "details": "The following `__callback` functions are just placeholders ideally     meant to be defined in child contract when proofs are used.     The function bodies simply silence compiler warnings."
      },
      "isOwner()": {
        "details": "Returns true if the caller is the current owner."
      },
      "owner()": {
        "details": "Returns the address of the current owner."
      },
      "renounceOwnership()": {
        "details": "Leaves the contract without owner. It will not be possible to call `onlyOwner` functions anymore. Can only be called by the current owner.     * NOTE: Renouncing ownership will leave the contract without an owner, thereby removing any functionality that is only available to the owner."
      },
      "transferOwnership(address)": {
        "details": "Transfers ownership of the contract to a new account (`newOwner`). Can only be called by the current owner."
      }
    }
  },
  "userdoc": {
    "methods": {}
  }
}