{
  "contractName": "FlipCoin",
  "abi": [
    {
      "inputs": [],
      "payable": false,
      "stateMutability": "nonpayable",
      "type": "constructor"
    },
    {
      "anonymous": false,
      "inputs": [
        {
          "indexed": true,
          "internalType": "address",
          "name": "player",
          "type": "address"
        },
        {
          "indexed": true,
          "internalType": "uint256",
          "name": "amount",
          "type": "uint256"
        },
        {
          "indexed": true,
          "internalType": "uint256",
          "name": "choice",
          "type": "uint256"
        }
      ],
      "name": "LogNewProbableQuery",
      "type": "event"
    },
    {
      "anonymous": false,
      "inputs": [
        {
          "indexed": true,
          "internalType": "address",
          "name": "previousOwner",
          "type": "address"
        },
        {
          "indexed": true,
          "internalType": "address",
          "name": "newOwner",
          "type": "address"
        }
      ],
      "name": "OwnershipTransferred",
      "type": "event"
    },
    {
      "anonymous": false,
      "inputs": [
        {
          "indexed": true,
          "internalType": "address",
          "name": "player",
          "type": "address"
        },
        {
          "indexed": true,
          "internalType": "uint256",
          "name": "amount",
          "type": "uint256"
        },
        {
          "indexed": false,
          "internalType": "bool",
          "name": "betStatus",
          "type": "bool"
        },
        {
          "indexed": true,
          "internalType": "bool",
          "name": "result",
          "type": "bool"
        }
      ],
      "name": "betResult",
      "type": "event"
    },
    {
      "anonymous": false,
      "inputs": [
        {
          "indexed": true,
          "internalType": "address",
          "name": "owner",
          "type": "address"
        },
        {
          "indexed": true,
          "internalType": "uint256",
          "name": "amount",
          "type": "uint256"
        }
      ],
      "name": "contractFunded",
      "type": "event"
    },
    {
      "anonymous": false,
      "inputs": [
        {
          "indexed": true,
          "internalType": "address",
          "name": "owner",
          "type": "address"
        },
        {
          "indexed": true,
          "internalType": "uint256",
          "name": "amount",
          "type": "uint256"
        }
      ],
      "name": "contractWithdraw",
      "type": "event"
    },
    {
      "anonymous": false,
      "inputs": [
        {
          "indexed": true,
          "internalType": "uint256",
          "name": "random_Number",
          "type": "uint256"
        }
      ],
      "name": "generatedRandomNumber",
      "type": "event"
    },
    {
      "anonymous": false,
      "inputs": [
        {
          "indexed": true,
          "internalType": "address",
          "name": "player",
          "type": "address"
        },
        {
          "indexed": true,
          "internalType": "uint256",
          "name": "amount",
          "type": "uint256"
        }
      ],
      "name": "playerWithdraw",
      "type": "event"
    },
    {
      "anonymous": false,
      "inputs": [
        {
          "indexed": true,
          "internalType": "bytes32",
          "name": "Id",
          "type": "bytes32"
        }
      ],
      "name": "proofVerificationFail",
      "type": "event"
    },
    {
      "constant": true,
      "inputs": [
        {
          "internalType": "bytes32",
          "name": "",
          "type": "bytes32"
        }
      ],
      "name": "bets",
      "outputs": [
        {
          "internalType": "address",
          "name": "player",
          "type": "address"
        },
        {
          "internalType": "uint256",
          "name": "amount",
          "type": "uint256"
        },
        {
          "internalType": "uint256",
          "name": "choice",
          "type": "uint256"
        },
        {
          "internalType": "bool",
          "name": "betFinished",
          "type": "bool"
        },
        {
          "internalType": "uint256",
          "name": "queryPrice",
          "type": "uint256"
        }
      ],
      "payable": false,
      "stateMutability": "view",
      "type": "function"
    },
    {
      "constant": true,
      "inputs": [],
      "name": "contractBalance",
      "outputs": [
        {
          "internalType": "uint256",
          "name": "",
          "type": "uint256"
        }
      ],
      "payable": false,
      "stateMutability": "view",
      "type": "function"
    },
    {
      "constant": true,
      "inputs": [],
      "name": "contractOwner",
      "outputs": [
        {
          "internalType": "address",
          "name": "",
          "type": "address"
        }
      ],
      "payable": false,
      "stateMutability": "view",
      "type": "function"
    },
    {
      "constant": true,
      "inputs": [],
      "name": "isOwner",
      "outputs": [
        {
          "internalType": "bool",
          "name": "",
          "type": "bool"
        }
      ],
      "payable": false,
      "stateMutability": "view",
      "type": "function"
    },
    {
      "constant": true,
      "inputs": [],
      "name": "minimumBet",
      "outputs": [
        {
          "internalType": "uint256",
          "name": "",
          "type": "uint256"
        }
      ],
      "payable": false,
      "stateMutability": "view",
      "type": "function"
    },
    {
      "constant": true,
      "inputs": [],
      "name": "owner",
      "outputs": [
        {
          "internalType": "address",
          "name": "",
          "type": "address"
        }
      ],
      "payable": false,
      "stateMutability": "view",
      "type": "function"
    },
    {
      "constant": true,
      "inputs": [
        {
          "internalType": "address",
          "name": "",
          "type": "address"
        }
      ],
      "name": "playersBalance",
      "outputs": [
        {
          "internalType": "uint256",
          "name": "",
          "type": "uint256"
        }
      ],
      "payable": false,
      "stateMutability": "view",
      "type": "function"
    },
    {
      "constant": true,
      "inputs": [],
      "name": "queryId",
      "outputs": [
        {
          "internalType": "bytes32",
          "name": "",
          "type": "bytes32"
        }
      ],
      "payable": false,
      "stateMutability": "view",
      "type": "function"
    },
    {
      "constant": false,
      "inputs": [],
      "name": "renounceOwnership",
      "outputs": [],
      "payable": false,
      "stateMutability": "nonpayable",
      "type": "function"
    },
    {
      "constant": false,
      "inputs": [
        {
          "internalType": "address",
          "name": "newOwner",
          "type": "address"
        }
      ],
      "name": "transferOwnership",
      "outputs": [],
      "payable": false,
      "stateMutability": "nonpayable",
      "type": "function"
    },
    {
      "constant": false,
      "inputs": [
        {
          "internalType": "uint256",
          "name": "_choice",
          "type": "uint256"
        }
      ],
      "name": "createBet",
      "outputs": [],
      "payable": true,
      "stateMutability": "payable",
      "type": "function"
    },
    {
      "constant": false,
      "inputs": [
        {
          "internalType": "bytes32",
          "name": "_myid",
          "type": "bytes32"
        },
        {
          "internalType": "string",
          "name": "_result",
          "type": "string"
        }
      ],
      "name": "__callback",
      "outputs": [],
      "payable": false,
      "stateMutability": "nonpayable",
      "type": "function"
    },
    {
      "constant": false,
      "inputs": [
        {
          "internalType": "bytes32",
          "name": "_queryId",
          "type": "bytes32"
        },
        {
          "internalType": "string",
          "name": "_result",
          "type": "string"
        },
        {
          "internalType": "bytes",
          "name": "_proof",
          "type": "bytes"
        }
      ],
      "name": "__callback",
      "outputs": [],
      "payable": false,
      "stateMutability": "nonpayable",
      "type": "function"
    },
    {
      "constant": false,
      "inputs": [
        {
          "internalType": "bytes32",
          "name": "_queryId",
          "type": "bytes32"
        },
        {
          "internalType": "address",
          "name": "_player",
          "type": "address"
        },
        {
          "internalType": "uint256",
          "name": "_totalAmount",
          "type": "uint256"
        },
        {
          "internalType": "uint256",
          "name": "_randomNumber",
          "type": "uint256"
        },
        {
          "internalType": "uint256",
          "name": "_choice",
          "type": "uint256"
        }
      ],
      "name": "_checkResult",
      "outputs": [],
      "payable": false,
      "stateMutability": "nonpayable",
      "type": "function"
    },
    {
      "constant": false,
      "inputs": [],
      "name": "fundContract",
      "outputs": [
        {
          "internalType": "uint256",
          "name": "",
          "type": "uint256"
        }
      ],
      "payable": true,
      "stateMutability": "payable",
      "type": "function"
    },
    {
      "constant": false,
      "inputs": [],
      "name": "payoutPlayer",
      "outputs": [
        {
          "internalType": "uint256",
          "name": "",
          "type": "uint256"
        }
      ],
      "payable": false,
      "stateMutability": "nonpayable",
      "type": "function"
    },
    {
      "constant": false,
      "inputs": [],
      "name": "payoutOwner",
      "outputs": [
        {
          "internalType": "uint256",
          "name": "",
          "type": "uint256"
        }
      ],
      "payable": false,
      "stateMutability": "nonpayable",
      "type": "function"
    }
  ],
  "bytecode": "0x60806040523480156200001157600080fd5b506000620000246200012c60201b60201c565b9050806000806101000a81548173ffffffffffffffffffffffffffffffffffffffff021916908373ffffffffffffffffffffffffffffffffffffffff1602179055508073ffffffffffffffffffffffffffffffffffffffff16600073ffffffffffffffffffffffffffffffffffffffff167f8be0079c531659141344cd1fd0a4f28419497f9722a3daafe3b4186f6b6457e060405160405180910390a35033600660006101000a81548173ffffffffffffffffffffffffffffffffffffffff021916908373ffffffffffffffffffffffffffffffffffffffff16021790555066038d7ea4c6800060078190555062000126603060f81b6200013460201b60201c565b62000b58565b600033905090565b600073ffffffffffffffffffffffffffffffffffffffff16600260009054906101000a900473ffffffffffffffffffffffffffffffffffffffff1673ffffffffffffffffffffffffffffffffffffffff161480620001c457506000620001c2600260009054906101000a900473ffffffffffffffffffffffffffffffffffffffff166200049a60201b60201c565b145b15620001de57620001dc6000620004a560201b60201c565b505b600260009054906101000a900473ffffffffffffffffffffffffffffffffffffffff1673ffffffffffffffffffffffffffffffffffffffff166338cc48316040518163ffffffff1660e01b8152600401602060405180830381600087803b1580156200024957600080fd5b505af11580156200025e573d6000803e3d6000fd5b505050506040513d60208110156200027557600080fd5b810190808051906020019092919050505073ffffffffffffffffffffffffffffffffffffffff16600160009054906101000a900473ffffffffffffffffffffffffffffffffffffffff1673ffffffffffffffffffffffffffffffffffffffff1614620003c457600260009054906101000a900473ffffffffffffffffffffffffffffffffffffffff1673ffffffffffffffffffffffffffffffffffffffff166338cc48316040518163ffffffff1660e01b8152600401602060405180830381600087803b1580156200034657600080fd5b505af11580156200035b573d6000803e3d6000fd5b505050506040513d60208110156200037257600080fd5b8101908080519060200190929190505050600160006101000a81548173ffffffffffffffffffffffffffffffffffffffff021916908373ffffffffffffffffffffffffffffffffffffffff1602179055505b600160009054906101000a900473ffffffffffffffffffffffffffffffffffffffff1673ffffffffffffffffffffffffffffffffffffffff1663688dcfd7826040518263ffffffff1660e01b815260040180827effffffffffffffffffffffffffffffffffffffffffffffffffffffffffffff19167effffffffffffffffffffffffffffffffffffffffffffffffffffffffffffff19168152602001915050600060405180830381600087803b1580156200047e57600080fd5b505af115801562000493573d6000803e3d6000fd5b5050505050565b6000813b9050919050565b6000620004b7620004be60201b60201c565b9050919050565b600080620004e6731d3b2638a7cc9f2cb3d298a3da7a90b67e5506ed6200049a60201b60201c565b11156200059257731d3b2638a7cc9f2cb3d298a3da7a90b67e5506ed600260006101000a81548173ffffffffffffffffffffffffffffffffffffffff021916908373ffffffffffffffffffffffffffffffffffffffff160217905550620005886040518060400160405280600b81526020017f6574685f6d61696e6e657400000000000000000000000000000000000000000081525062000a8d60201b60201c565b6001905062000a8a565b6000620005b973c03a2615d5efaf5f49f60b7bb6583eaec212fdf16200049a60201b60201c565b1115620006655773c03a2615d5efaf5f49f60b7bb6583eaec212fdf1600260006101000a81548173ffffffffffffffffffffffffffffffffffffffff021916908373ffffffffffffffffffffffffffffffffffffffff1602179055506200065b6040518060400160405280600c81526020017f6574685f726f707374656e33000000000000000000000000000000000000000081525062000a8d60201b60201c565b6001905062000a8a565b60006200068c73b7a07bcf2ba2f2703b24c0691b5278999c59ac7e6200049a60201b60201c565b1115620007385773b7a07bcf2ba2f2703b24c0691b5278999c59ac7e600260006101000a81548173ffffffffffffffffffffffffffffffffffffffff021916908373ffffffffffffffffffffffffffffffffffffffff1602179055506200072e6040518060400160405280600981526020017f6574685f6b6f76616e000000000000000000000000000000000000000000000081525062000a8d60201b60201c565b6001905062000a8a565b60006200075f73146500cfd35b22e4a392fe0adc06de1a1368ed486200049a60201b60201c565b11156200080b5773146500cfd35b22e4a392fe0adc06de1a1368ed48600260006101000a81548173ffffffffffffffffffffffffffffffffffffffff021916908373ffffffffffffffffffffffffffffffffffffffff160217905550620008016040518060400160405280600b81526020017f6574685f72696e6b65627900000000000000000000000000000000000000000081525062000a8d60201b60201c565b6001905062000a8a565b60006200083273a2998efd205fb9d4b4963afb70778d6354ad3a416200049a60201b60201c565b1115620008de5773a2998efd205fb9d4b4963afb70778d6354ad3a41600260006101000a81548173ffffffffffffffffffffffffffffffffffffffff021916908373ffffffffffffffffffffffffffffffffffffffff160217905550620008d46040518060400160405280600a81526020017f6574685f676f65726c690000000000000000000000000000000000000000000081525062000a8d60201b60201c565b6001905062000a8a565b600062000905736f485c8bf6fc43ea212e93bbf8ce046c7f1cb4756200049a60201b60201c565b11156200096b57736f485c8bf6fc43ea212e93bbf8ce046c7f1cb475600260006101000a81548173ffffffffffffffffffffffffffffffffffffffff021916908373ffffffffffffffffffffffffffffffffffffffff1602179055506001905062000a8a565b6000620009927320e12a1f859b3feae5fb2a0a32c18f5a65555bbf6200049a60201b60201c565b1115620009f8577320e12a1f859b3feae5fb2a0a32c18f5a65555bbf600260006101000a81548173ffffffffffffffffffffffffffffffffffffffff021916908373ffffffffffffffffffffffffffffffffffffffff1602179055506001905062000a8a565b600062000a1f7351efaf4c8b3c9afbd5ab9f4bbc82784ab6ef8faa6200049a60201b60201c565b111562000a85577351efaf4c8b3c9afbd5ab9f4bbc82784ab6ef8faa600260006101000a81548173ffffffffffffffffffffffffffffffffffffffff021916908373ffffffffffffffffffffffffffffffffffffffff1602179055506001905062000a8a565b600090505b90565b806003908051906020019062000aa592919062000aa9565b5050565b828054600181600116156101000203166002900490600052602060002090601f016020900481019282601f1062000aec57805160ff191683800117855562000b1d565b8280016001018555821562000b1d579182015b8281111562000b1c57825182559160200191906001019062000aff565b5b50905062000b2c919062000b30565b5090565b62000b5591905b8082111562000b5157600081600090555060010162000b37565b5090565b90565b6150468062000b686000396000f3fe6080604052600436106100fe5760003560e01c80638f32d59b11610095578063c38a8afd11610064578063c38a8afd14610586578063c902c3ae146105b1578063ce606ee01461064c578063dcb79140146106a3578063f2fde38b146106ce576100fe565b80638f32d59b14610492578063ac793a60146104c1578063b3bf6cd7146104ef578063bd097e2114610568576100fe565b80637b6a1833116100d15780637b6a1833146103805780638a670113146103e55780638b7afe2e146104105780638da5cb5b1461043b576100fe565b806327dc297e1461010357806338bbfa50146101d55780633f1be4d41461033e578063715018a614610369575b600080fd5b34801561010f57600080fd5b506101d36004803603604081101561012657600080fd5b81019080803590602001909291908035906020019064010000000081111561014d57600080fd5b82018360208201111561015f57600080fd5b8035906020019184600183028401116401000000008311171561018157600080fd5b91908080601f016020809104026020016040519081016040528093929190818152602001838380828437600081840152601f19601f82011690508083019250505050505050919291929050505061071f565b005b3480156101e157600080fd5b5061033c600480360360608110156101f857600080fd5b81019080803590602001909291908035906020019064010000000081111561021f57600080fd5b82018360208201111561023157600080fd5b8035906020019184600183028401116401000000008311171561025357600080fd5b91908080601f016020809104026020016040519081016040528093929190818152602001838380828437600081840152601f19601f820116905080830192505050505050509192919290803590602001906401000000008111156102b657600080fd5b8201836020820111156102c857600080fd5b803590602001918460018302840111640100000000831117156102ea57600080fd5b91908080601f016020809104026020016040519081016040528093929190818152602001838380828437600081840152601f19601f820116905080830192505050505050509192919290505050610762565b005b34801561034a57600080fd5b5061035361099a565b6040518082815260200191505060405180910390f35b34801561037557600080fd5b5061037e6109a0565b005b34801561038c57600080fd5b506103cf600480360360208110156103a357600080fd5b81019080803573ffffffffffffffffffffffffffffffffffffffff169060200190929190505050610ad9565b6040518082815260200191505060405180910390f35b3480156103f157600080fd5b506103fa610af1565b6040518082815260200191505060405180910390f35b34801561041c57600080fd5b50610425610c89565b6040518082815260200191505060405180910390f35b34801561044757600080fd5b50610450610c8f565b604051808273ffffffffffffffffffffffffffffffffffffffff1673ffffffffffffffffffffffffffffffffffffffff16815260200191505060405180910390f35b34801561049e57600080fd5b506104a7610cb8565b604051808215151515815260200191505060405180910390f35b6104ed600480360360208110156104d757600080fd5b8101908080359060200190929190505050610d16565b005b3480156104fb57600080fd5b50610566600480360360a081101561051257600080fd5b8101908080359060200190929190803573ffffffffffffffffffffffffffffffffffffffff16906020019092919080359060200190929190803590602001909291908035906020019092919050505061115d565b005b6105706115cf565b6040518082815260200191505060405180910390f35b34801561059257600080fd5b5061059b611638565b6040518082815260200191505060405180910390f35b3480156105bd57600080fd5b506105ea600480360360208110156105d457600080fd5b810190808035906020019092919050505061163e565b604051808673ffffffffffffffffffffffffffffffffffffffff1673ffffffffffffffffffffffffffffffffffffffff168152602001858152602001848152602001831515151581526020018281526020019550505050505060405180910390f35b34801561065857600080fd5b506106616116a1565b604051808273ffffffffffffffffffffffffffffffffffffffff1673ffffffffffffffffffffffffffffffffffffffff16815260200191505060405180910390f35b3480156106af57600080fd5b506106b86116c7565b6040518082815260200191505060405180910390f35b3480156106da57600080fd5b5061071d600480360360208110156106f157600080fd5b81019080803573ffffffffffffffffffffffffffffffffffffffff1690602001909291905050506118d7565b005b61075e828260006040519080825280601f01601f1916602001820160405280156107585781602001600182028038833980820191505090505b50610762565b5050565b61076a61195d565b73ffffffffffffffffffffffffffffffffffffffff163373ffffffffffffffffffffffffffffffffffffffff16146107a157600080fd5b60006107ae848484611c7d565b60ff1614156109675760006002836040516020018082805190602001908083835b602083106107f257805182526020820191506020810190506020830392506107cf565b6001836020036101000a0380198251168184511680821785525050505050509050019150506040516020818303038152906040528051906020012060001c8161083757fe5b06905060008114806108495750600181145b61084f57fe5b807fc13d60fe9dffdb6908d2d446cd18134373a51db0738ee04f296eeb9128121cbc60405160405180910390a26000600a600086815260200190815260200160002060000160009054906101000a900473ffffffffffffffffffffffffffffffffffffffff1690506000600a60008781526020019081526020016000206001015490506000600a60008881526020019081526020016000206002015490506000600a6000898152602001908152602001600020600401549050600061093082610922600287611dad90919063ffffffff16565b611e3390919063ffffffff16565b9050610946600285611dad90919063ffffffff16565b81111561094f57fe5b61095c898683898761115d565b505050505050610995565b827f3487e280549f8291b0d7925045c609dc53762d600795125c19f7870b32f2991860405160405180910390a25b505050565b60095481565b6109a8610cb8565b610a1a576040517f08c379a00000000000000000000000000000000000000000000000000000000081526004018080602001828103825260208152602001807f4f776e61626c653a2063616c6c6572206973206e6f7420746865206f776e657281525060200191505060405180910390fd5b600073ffffffffffffffffffffffffffffffffffffffff166000809054906101000a900473ffffffffffffffffffffffffffffffffffffffff1673ffffffffffffffffffffffffffffffffffffffff167f8be0079c531659141344cd1fd0a4f28419497f9722a3daafe3b4186f6b6457e060405160405180910390a360008060006101000a81548173ffffffffffffffffffffffffffffffffffffffff021916908373ffffffffffffffffffffffffffffffffffffffff160217905550565b600b6020528060005260406000206000915090505481565b6000610afb610cb8565b610b6d576040517f08c379a00000000000000000000000000000000000000000000000000000000081526004018080602001828103825260208152602001807f4f776e61626c653a2063616c6c6572206973206e6f7420746865206f776e657281525060200191505060405180910390fd5b60006008541015610be6576040517f08c379a000000000000000000000000000000000000000000000000000000000815260040180806020018281038252601e8152602001807f436f6e747261637420646f6573206e6f7420686176652062616c616e6365000081525060200191505060405180910390fd5b6000600854905060006008819055503373ffffffffffffffffffffffffffffffffffffffff166108fc829081150290604051600060405180830381858888f19350505050158015610c3b573d6000803e3d6000fd5b50803373ffffffffffffffffffffffffffffffffffffffff167f82f1f08d0d9b1d46df8a71ee7b7b995dd44e25e019fc31fb42f88451d0ad5c7460405160405180910390a360085491505090565b60085481565b60008060009054906101000a900473ffffffffffffffffffffffffffffffffffffffff16905090565b60008060009054906101000a900473ffffffffffffffffffffffffffffffffffffffff1673ffffffffffffffffffffffffffffffffffffffff16610cfa611e7d565b73ffffffffffffffffffffffffffffffffffffffff1614905090565b6000811480610d255750600181145b610d97576040517f08c379a000000000000000000000000000000000000000000000000000000000815260040180806020018281038252601f8152602001807f596f75206861766520746f2063686f6f73652048656164206f72205461696c0081525060200191505060405180910390fd5b600754341015610df2576040517f08c379a0000000000000000000000000000000000000000000000000000000008152600401808060200182810382526025815260200180614f6a6025913960400191505060405180910390fd5b346008541015610e4d576040517f08c379a0000000000000000000000000000000000000000000000000000000008152600401808060200182810382526022815260200180614fb06022913960400191505060405180910390fd5b6000809050600062030d409050610e6682600183611e85565b600981905550610e8134600854611e3390919063ffffffff16565b6008819055506000831415610ff6576040518060a001604052803373ffffffffffffffffffffffffffffffffffffffff16815260200134815260200160008152602001600015158152602001610f0b6040518060400160405280600681526020017f52616e646f6d0000000000000000000000000000000000000000000000000000815250612420565b815250600a6000600954815260200190815260200160002060008201518160000160006101000a81548173ffffffffffffffffffffffffffffffffffffffff021916908373ffffffffffffffffffffffffffffffffffffffff160217905550602082015181600101556040820151816002015560608201518160030160006101000a81548160ff021916908315150217905550608082015181600401559050506000343373ffffffffffffffffffffffffffffffffffffffff167fec35ac2d93f96ed515144c8e031a45117c872de56715ed64de286a892e7adc7660405160405180910390a4611158565b6040518060a001604052803373ffffffffffffffffffffffffffffffffffffffff168152602001348152602001600181526020016000151581526020016110716040518060400160405280600681526020017f52616e646f6d0000000000000000000000000000000000000000000000000000815250612420565b815250600a6000600954815260200190815260200160002060008201518160000160006101000a81548173ffffffffffffffffffffffffffffffffffffffff021916908373ffffffffffffffffffffffffffffffffffffffff160217905550602082015181600101556040820151816002015560608201518160030160006101000a81548160ff021916908315150217905550608082015181600401559050506001343373ffffffffffffffffffffffffffffffffffffffff167fec35ac2d93f96ed515144c8e031a45117c872de56715ed64de286a892e7adc7660405160405180910390a45b505050565b60001515600a600087815260200190815260200160002060030160009054906101000a900460ff161515146111fa576040517f08c379a00000000000000000000000000000000000000000000000000000000081526004018080602001828103825260148152602001807f42657420616c72656164792066696e697368656400000000000000000000000081525060200191505060405180910390fd5b6000600a6000878152602001908152602001600020905060018160030160006101000a81548160ff02191690831515021790555060008314801561123e5750600082145b156113575761129584600b60008873ffffffffffffffffffffffffffffffffffffffff1673ffffffffffffffffffffffffffffffffffffffff168152602001908152602001600020546127b490919063ffffffff16565b600b60008773ffffffffffffffffffffffffffffffffffffffff1673ffffffffffffffffffffffffffffffffffffffff1681526020019081526020016000208190555060011515848673ffffffffffffffffffffffffffffffffffffffff167fbb541be60c4c126380ba7d4844fa71bd13c63163ddeb652daa8c5c4dbe98884d600a60008b815260200190815260200160002060030160009054906101000a900460ff16604051808215151515815260200191505060405180910390a46115c7565b6000831480156113675750600182145b1561140657611381846008546127b490919063ffffffff16565b60088190555060001515848673ffffffffffffffffffffffffffffffffffffffff167fbb541be60c4c126380ba7d4844fa71bd13c63163ddeb652daa8c5c4dbe98884d600a60008b815260200190815260200160002060030160009054906101000a900460ff16604051808215151515815260200191505060405180910390a46115c6565b6001831480156114165750600182145b1561152f5761146d84600b60008873ffffffffffffffffffffffffffffffffffffffff1673ffffffffffffffffffffffffffffffffffffffff168152602001908152602001600020546127b490919063ffffffff16565b600b60008773ffffffffffffffffffffffffffffffffffffffff1673ffffffffffffffffffffffffffffffffffffffff1681526020019081526020016000208190555060011515848673ffffffffffffffffffffffffffffffffffffffff167fbb541be60c4c126380ba7d4844fa71bd13c63163ddeb652daa8c5c4dbe98884d600a60008b815260200190815260200160002060030160009054906101000a900460ff16604051808215151515815260200191505060405180910390a46115c5565b611544846008546127b490919063ffffffff16565b60088190555060001515848673ffffffffffffffffffffffffffffffffffffffff167fbb541be60c4c126380ba7d4844fa71bd13c63163ddeb652daa8c5c4dbe98884d600a60008b815260200190815260200160002060030160009054906101000a900460ff16604051808215151515815260200191505060405180910390a45b5b5b505050505050565b60006115e6346008546127b490919063ffffffff16565b600881905550343373ffffffffffffffffffffffffffffffffffffffff167fff043843182fec3fbcbc695545b7652d340a2cf0919615adb04d98a00e7de8e260405160405180910390a3600854905090565b60075481565b600a6020528060005260406000206000915090508060000160009054906101000a900473ffffffffffffffffffffffffffffffffffffffff16908060010154908060020154908060030160009054906101000a900460ff16908060040154905085565b600660009054906101000a900473ffffffffffffffffffffffffffffffffffffffff1681565b600080600b60003373ffffffffffffffffffffffffffffffffffffffff1673ffffffffffffffffffffffffffffffffffffffff168152602001908152602001600020541161177d576040517f08c379a00000000000000000000000000000000000000000000000000000000081526004018080602001828103825260128152602001807f4e6f7420656e6f7567682042616c616e6365000000000000000000000000000081525060200191505060405180910390fd5b6000600b60003373ffffffffffffffffffffffffffffffffffffffff1673ffffffffffffffffffffffffffffffffffffffff1681526020019081526020016000205490506000600b60003373ffffffffffffffffffffffffffffffffffffffff1673ffffffffffffffffffffffffffffffffffffffff168152602001908152602001600020819055503373ffffffffffffffffffffffffffffffffffffffff166108fc829081150290604051600060405180830381858888f1935050505015801561184c573d6000803e3d6000fd5b50803373ffffffffffffffffffffffffffffffffffffffff167f7804b809b0affd82f31b74be3ae3f91788a1016375791008c346590f19029b2c60405160405180910390a3600b60003373ffffffffffffffffffffffffffffffffffffffff1673ffffffffffffffffffffffffffffffffffffffff1681526020019081526020016000205491505090565b6118df610cb8565b611951576040517f08c379a00000000000000000000000000000000000000000000000000000000081526004018080602001828103825260208152602001807f4f776e61626c653a2063616c6c6572206973206e6f7420746865206f776e657281525060200191505060405180910390fd5b61195a8161283c565b50565b60008073ffffffffffffffffffffffffffffffffffffffff16600260009054906101000a900473ffffffffffffffffffffffffffffffffffffffff1673ffffffffffffffffffffffffffffffffffffffff1614806119e5575060006119e3600260009054906101000a900473ffffffffffffffffffffffffffffffffffffffff16612980565b145b156119f6576119f4600061298b565b505b600260009054906101000a900473ffffffffffffffffffffffffffffffffffffffff1673ffffffffffffffffffffffffffffffffffffffff166338cc48316040518163ffffffff1660e01b8152600401602060405180830381600087803b158015611a6057600080fd5b505af1158015611a74573d6000803e3d6000fd5b505050506040513d6020811015611a8a57600080fd5b810190808051906020019092919050505073ffffffffffffffffffffffffffffffffffffffff16600160009054906101000a900473ffffffffffffffffffffffffffffffffffffffff1673ffffffffffffffffffffffffffffffffffffffff1614611bd557600260009054906101000a900473ffffffffffffffffffffffffffffffffffffffff1673ffffffffffffffffffffffffffffffffffffffff166338cc48316040518163ffffffff1660e01b8152600401602060405180830381600087803b158015611b5957600080fd5b505af1158015611b6d573d6000803e3d6000fd5b505050506040513d6020811015611b8357600080fd5b8101908080519060200190929190505050600160006101000a81548173ffffffffffffffffffffffffffffffffffffffff021916908373ffffffffffffffffffffffffffffffffffffffff1602179055505b600160009054906101000a900473ffffffffffffffffffffffffffffffffffffffff1673ffffffffffffffffffffffffffffffffffffffff1663c281d19e6040518163ffffffff1660e01b815260040160206040518083038186803b158015611c3d57600080fd5b505afa158015611c51573d6000803e3d6000fd5b505050506040513d6020811015611c6757600080fd5b8101908080519060200190929190505050905090565b60007f4c0000000000000000000000000000000000000000000000000000000000000082600081518110611cad57fe5b602001015160f81c60f81b7effffffffffffffffffffffffffffffffffffffffffffffffffffffffffffff1916141580611d4057507f500000000000000000000000000000000000000000000000000000000000000082600181518110611d1057fe5b602001015160f81c60f81b7effffffffffffffffffffffffffffffffffffffffffffffffffffffffffffff191614155b80611d6c5750600160ff1682600281518110611d5857fe5b602001015160f81c60f81b60f81c60ff1614155b15611d7a5760019050611da6565b6000611d8f838686611d8a61299c565b612a3e565b905080611da0576002915050611da6565b60009150505b9392505050565b600080831415611dc05760009050611e2d565b6000828402905082848281611dd157fe5b0414611e28576040517f08c379a0000000000000000000000000000000000000000000000000000000008152600401808060200182810382526021815260200180614f8f6021913960400191505060405180910390fd5b809150505b92915050565b6000611e7583836040518060400160405280601e81526020017f536166654d6174683a207375627472616374696f6e206f766572666c6f7700008152506130e9565b905092915050565b600033905090565b60008083118015611e97575060208311155b611ea057600080fd5b600a84029350606060016040519080825280601f01601f191660200182016040528015611edc5781602001600182028038833980820191505090505b5090508360f81b81600081518110611ef057fe5b60200101907effffffffffffffffffffffffffffffffffffffffffffffffffffffffffffff1916908160001a905350606060206040519080825280601f01601f191660200182016040528015611f555781602001600182028038833980820191505090505b509050606060206040519080825280601f01601f191660200182016040528015611f8e5781602001600182028038833980820191505090505b5090506000611f9b6131a9565b905060208352424118600143034018602084015260208252806020830152606060206040519080825280601f01601f191660200182016040528015611fef5781602001600182028038833980820191505090505b509050886020820152606060086040519080825280601f01601f19166020018201604052801561202e5781602001600182028038833980820191505090505b50905061204182601860088460006134c9565b5061204a614e5d565b604051806080016040528087815260200188815260200186815260200184815250905060006120af6040518060400160405280600681526020017f72616e646f6d0000000000000000000000000000000000000000000000000000815250838c613528565b9050606060086040519080825280601f01601f1916602001820160405280156120e75781602001600182028038833980820191505090505b50905060208401517f0100000000000000000000000000000000000000000000000000000000000000810460278301537e01000000000000000000000000000000000000000000000000000000000000810460268301537d010000000000000000000000000000000000000000000000000000000000810460258301537c0100000000000000000000000000000000000000000000000000000000810460248301537b01000000000000000000000000000000000000000000000000000000810460238301537a01000000000000000000000000000000000000000000000000000081046022830153790100000000000000000000000000000000000000000000000000810460218301537801000000000000000000000000000000000000000000000000810460208301535061240d82828560016004811061222657fe5b602002015160028760006004811061223a57fe5b60200201516040518082805190602001908083835b60208310612272578051825260208201915060208101905060208303925061224f565b6001836020036101000a038019825116818451168082178552505050505050905001915050602060405180830381855afa1580156122b4573d6000803e3d6000fd5b5050506040513d60208110156122c957600080fd5b8101908080519060200190929190505050876002600481106122e757fe5b60200201516040516020018085805190602001908083835b6020831061232257805182526020820191506020810190506020830392506122ff565b6001836020036101000a03801982511681845116808217855250505050505090500184805190602001908083835b602083106123735780518252602082019150602081019050602083039250612350565b6001836020036101000a03801982511681845116808217855250505050505090500183815260200182805190602001908083835b602083106123ca57805182526020820191506020810190506020830392506123a7565b6001836020036101000a03801982511681845116808217855250505050505090500194505050505060405160208183030381529060405280519060200120613897565b8199505050505050505050509392505050565b60008073ffffffffffffffffffffffffffffffffffffffff16600260009054906101000a900473ffffffffffffffffffffffffffffffffffffffff1673ffffffffffffffffffffffffffffffffffffffff1614806124a8575060006124a6600260009054906101000a900473ffffffffffffffffffffffffffffffffffffffff16612980565b145b156124b9576124b7600061298b565b505b600260009054906101000a900473ffffffffffffffffffffffffffffffffffffffff1673ffffffffffffffffffffffffffffffffffffffff166338cc48316040518163ffffffff1660e01b8152600401602060405180830381600087803b15801561252357600080fd5b505af1158015612537573d6000803e3d6000fd5b505050506040513d602081101561254d57600080fd5b810190808051906020019092919050505073ffffffffffffffffffffffffffffffffffffffff16600160009054906101000a900473ffffffffffffffffffffffffffffffffffffffff1673ffffffffffffffffffffffffffffffffffffffff161461269857600260009054906101000a900473ffffffffffffffffffffffffffffffffffffffff1673ffffffffffffffffffffffffffffffffffffffff166338cc48316040518163ffffffff1660e01b8152600401602060405180830381600087803b15801561261c57600080fd5b505af1158015612630573d6000803e3d6000fd5b505050506040513d602081101561264657600080fd5b8101908080519060200190929190505050600160006101000a81548173ffffffffffffffffffffffffffffffffffffffff021916908373ffffffffffffffffffffffffffffffffffffffff1602179055505b600160009054906101000a900473ffffffffffffffffffffffffffffffffffffffff1673ffffffffffffffffffffffffffffffffffffffff1663524f3889836040518263ffffffff1660e01b81526004018080602001828103825283818151815260200191508051906020019080838360005b8381101561272657808201518184015260208101905061270b565b50505050905090810190601f1680156127535780820380516001836020036101000a031916815260200191505b5092505050602060405180830381600087803b15801561277257600080fd5b505af1158015612786573d6000803e3d6000fd5b505050506040513d602081101561279c57600080fd5b81019080805190602001909291905050509050919050565b600080828401905083811015612832576040517f08c379a000000000000000000000000000000000000000000000000000000000815260040180806020018281038252601b8152602001807f536166654d6174683a206164646974696f6e206f766572666c6f77000000000081525060200191505060405180910390fd5b8091505092915050565b600073ffffffffffffffffffffffffffffffffffffffff168173ffffffffffffffffffffffffffffffffffffffff1614156128c2576040517f08c379a0000000000000000000000000000000000000000000000000000000008152600401808060200182810382526026815260200180614f446026913960400191505060405180910390fd5b8073ffffffffffffffffffffffffffffffffffffffff166000809054906101000a900473ffffffffffffffffffffffffffffffffffffffff1673ffffffffffffffffffffffffffffffffffffffff167f8be0079c531659141344cd1fd0a4f28419497f9722a3daafe3b4186f6b6457e060405160405180910390a3806000806101000a81548173ffffffffffffffffffffffffffffffffffffffff021916908373ffffffffffffffffffffffffffffffffffffffff16021790555050565b6000813b9050919050565b60006129956138b3565b9050919050565b606060038054600181600116156101000203166002900480601f016020809104026020016040519081016040528092919081815260200182805460018160011615610100020316600290048015612a345780601f10612a0957610100808354040283529160200191612a34565b820191906000526020600020905b815481529060010190602001808311612a1757829003601f168201915b5050505050905090565b6000806020600287604581518110612a5257fe5b602001015160f81c60f81b60f81c60ff1601604401019050606060206040519080825280601f01601f191660200182016040528015612aa05781602001600182028038833980820191505090505b509050612ab2878360208460006134c9565b50600284876040516020018083805190602001908083835b60208310612aed5780518252602082019150602081019050602083039250612aca565b6001836020036101000a038019825116818451168082178552505050505050905001828152602001925050506040516020818303038152906040526040518082805190602001908083835b60208310612b5b5780518252602082019150602081019050602083039250612b38565b6001836020036101000a038019825116818451168082178552505050505050905001915050602060405180830381855afa158015612b9d573d6000803e3d6000fd5b5050506040513d6020811015612bb257600080fd5b81019080805190602001909291905050506040516020018082815260200191505060405160208183030381529060405280519060200120818051906020012014612c01576000925050506130e1565b60606002886001604986010181518110612c1757fe5b602001015160f81c60f81b60f81c60ff16016040519080825280601f01601f191660200182016040528015612c5b5781602001600182028038833980820191505090505b509050612c70886049850183518460006134c9565b50612d3b6002826040518082805190602001908083835b60208310612caa5780518252602082019150602081019050602083039250612c87565b6001836020036101000a038019825116818451168082178552505050505050905001915050602060405180830381855afa158015612cec573d6000803e3d6000fd5b5050506040513d6020811015612d0157600080fd5b8101908080519060200190929190505050878a6008602088010181518110612d2557fe5b602001015160f81c60f81b60f81c60ff16613e0a565b612d4b57600093505050506130e1565b606060296040519080825280601f01601f191660200182016040528015612d815781602001600182028038833980820191505090505b509050612d96896020860160298460006134c9565b506060604080519080825280601f01601f191660200182016040528015612dcc5781602001600182028038833980820191505090505b5090506000604184516029602089010101019050612df28b6040830360408560006134c9565b5060006002836040518082805190602001908083835b60208310612e2b5780518252602082019150602081019050602083039250612e08565b6001836020036101000a038019825116818451168082178552505050505050905001915050602060405180830381855afa158015612e6d573d6000803e3d6000fd5b5050506040513d6020811015612e8257600080fd5b8101908080519060200190929190505050905083816040516020018083805190602001908083835b60208310612ecd5780518252602082019150602081019050602083039250612eaa565b6001836020036101000a0380198251168184511680821785525050505050509050018281526020019250505060405160208183030381529060405280519060200120600460008d8152602001908152602001600020541415612f4557600460008c815260200190815260200160002060009055612f55565b60009750505050505050506130e1565b606060496040519080825280601f01601f191660200182016040528015612f8b5781602001600182028038833980820191505090505b509050612f9d8d8960498460006134c9565b506130466002826040518082805190602001908083835b60208310612fd75780518252602082019150602081019050602083039250612fb4565b6001836020036101000a038019825116818451168082178552505050505050905001915050602060405180830381855afa158015613019573d6000803e3d6000fd5b5050506040513d602081101561302e57600080fd5b81019080805190602001909291905050508786613eba565b61305b576000985050505050505050506130e1565b6005600083815260200190815260200160002060009054906101000a900460ff166130b55761308a8d84614078565b6005600084815260200190815260200160002060006101000a81548160ff0219169083151502179055505b6005600083815260200190815260200160002060009054906101000a900460ff16985050505050505050505b949350505050565b6000838311158290613196576040517f08c379a00000000000000000000000000000000000000000000000000000000081526004018080602001828103825283818151815260200191508051906020019080838360005b8381101561315b578082015181840152602081019050613140565b50505050905090810190601f1680156131885780820380516001836020036101000a031916815260200191505b509250505060405180910390fd5b5060008385039050809150509392505050565b60008073ffffffffffffffffffffffffffffffffffffffff16600260009054906101000a900473ffffffffffffffffffffffffffffffffffffffff1673ffffffffffffffffffffffffffffffffffffffff1614806132315750600061322f600260009054906101000a900473ffffffffffffffffffffffffffffffffffffffff16612980565b145b1561324257613240600061298b565b505b600260009054906101000a900473ffffffffffffffffffffffffffffffffffffffff1673ffffffffffffffffffffffffffffffffffffffff166338cc48316040518163ffffffff1660e01b8152600401602060405180830381600087803b1580156132ac57600080fd5b505af11580156132c0573d6000803e3d6000fd5b505050506040513d60208110156132d657600080fd5b810190808051906020019092919050505073ffffffffffffffffffffffffffffffffffffffff16600160009054906101000a900473ffffffffffffffffffffffffffffffffffffffff1673ffffffffffffffffffffffffffffffffffffffff161461342157600260009054906101000a900473ffffffffffffffffffffffffffffffffffffffff1673ffffffffffffffffffffffffffffffffffffffff166338cc48316040518163ffffffff1660e01b8152600401602060405180830381600087803b1580156133a557600080fd5b505af11580156133b9573d6000803e3d6000fd5b505050506040513d60208110156133cf57600080fd5b8101908080519060200190929190505050600160006101000a81548173ffffffffffffffffffffffffffffffffffffffff021916908373ffffffffffffffffffffffffffffffffffffffff1602179055505b600160009054906101000a900473ffffffffffffffffffffffffffffffffffffffff1673ffffffffffffffffffffffffffffffffffffffff1663abaa5f3e6040518163ffffffff1660e01b815260040160206040518083038186803b15801561348957600080fd5b505afa15801561349d573d6000803e3d6000fd5b505050506040513d60208110156134b357600080fd5b8101908080519060200190929190505050905090565b60606000828501905080845110156134e057600080fd5b600086602001905060008460200190505b86886020010182101561351957818901518082880152506020820191506020810190506134f1565b85935050505095945050505050565b60008073ffffffffffffffffffffffffffffffffffffffff16600260009054906101000a900473ffffffffffffffffffffffffffffffffffffffff1673ffffffffffffffffffffffffffffffffffffffff1614806135b0575060006135ae600260009054906101000a900473ffffffffffffffffffffffffffffffffffffffff16612980565b145b156135c1576135bf600061298b565b505b600260009054906101000a900473ffffffffffffffffffffffffffffffffffffffff1673ffffffffffffffffffffffffffffffffffffffff166338cc48316040518163ffffffff1660e01b8152600401602060405180830381600087803b15801561362b57600080fd5b505af115801561363f573d6000803e3d6000fd5b505050506040513d602081101561365557600080fd5b810190808051906020019092919050505073ffffffffffffffffffffffffffffffffffffffff16600160009054906101000a900473ffffffffffffffffffffffffffffffffffffffff1673ffffffffffffffffffffffffffffffffffffffff16146137a057600260009054906101000a900473ffffffffffffffffffffffffffffffffffffffff1673ffffffffffffffffffffffffffffffffffffffff166338cc48316040518163ffffffff1660e01b8152600401602060405180830381600087803b15801561372457600080fd5b505af1158015613738573d6000803e3d6000fd5b505050506040513d602081101561374e57600080fd5b8101908080519060200190929190505050600160006101000a81548173ffffffffffffffffffffffffffffffffffffffff021916908373ffffffffffffffffffffffffffffffffffffffff1602179055505b606060046040519080825280602002602001820160405280156137d757816020015b60608152602001906001900390816137c25790505b509050836000600481106137e757fe5b6020020151816000815181106137f957fe5b60200260200101819052508360016004811061381157fe5b60200201518160018151811061382357fe5b60200260200101819052508360026004811061383b57fe5b60200201518160028151811061384d57fe5b60200260200101819052508360036004811061386557fe5b60200201518160038151811061387757fe5b602002602001018190525061388d858285614490565b9150509392505050565b8060046000848152602001908152602001600020819055505050565b6000806138d3731d3b2638a7cc9f2cb3d298a3da7a90b67e5506ed612980565b111561397557731d3b2638a7cc9f2cb3d298a3da7a90b67e5506ed600260006101000a81548173ffffffffffffffffffffffffffffffffffffffff021916908373ffffffffffffffffffffffffffffffffffffffff16021790555061396c6040518060400160405280600b81526020017f6574685f6d61696e6e65740000000000000000000000000000000000000000008152506149f6565b60019050613e07565b600061399473c03a2615d5efaf5f49f60b7bb6583eaec212fdf1612980565b1115613a365773c03a2615d5efaf5f49f60b7bb6583eaec212fdf1600260006101000a81548173ffffffffffffffffffffffffffffffffffffffff021916908373ffffffffffffffffffffffffffffffffffffffff160217905550613a2d6040518060400160405280600c81526020017f6574685f726f707374656e3300000000000000000000000000000000000000008152506149f6565b60019050613e07565b6000613a5573b7a07bcf2ba2f2703b24c0691b5278999c59ac7e612980565b1115613af75773b7a07bcf2ba2f2703b24c0691b5278999c59ac7e600260006101000a81548173ffffffffffffffffffffffffffffffffffffffff021916908373ffffffffffffffffffffffffffffffffffffffff160217905550613aee6040518060400160405280600981526020017f6574685f6b6f76616e00000000000000000000000000000000000000000000008152506149f6565b60019050613e07565b6000613b1673146500cfd35b22e4a392fe0adc06de1a1368ed48612980565b1115613bb85773146500cfd35b22e4a392fe0adc06de1a1368ed48600260006101000a81548173ffffffffffffffffffffffffffffffffffffffff021916908373ffffffffffffffffffffffffffffffffffffffff160217905550613baf6040518060400160405280600b81526020017f6574685f72696e6b6562790000000000000000000000000000000000000000008152506149f6565b60019050613e07565b6000613bd773a2998efd205fb9d4b4963afb70778d6354ad3a41612980565b1115613c795773a2998efd205fb9d4b4963afb70778d6354ad3a41600260006101000a81548173ffffffffffffffffffffffffffffffffffffffff021916908373ffffffffffffffffffffffffffffffffffffffff160217905550613c706040518060400160405280600a81526020017f6574685f676f65726c69000000000000000000000000000000000000000000008152506149f6565b60019050613e07565b6000613c98736f485c8bf6fc43ea212e93bbf8ce046c7f1cb475612980565b1115613cfc57736f485c8bf6fc43ea212e93bbf8ce046c7f1cb475600260006101000a81548173ffffffffffffffffffffffffffffffffffffffff021916908373ffffffffffffffffffffffffffffffffffffffff16021790555060019050613e07565b6000613d1b7320e12a1f859b3feae5fb2a0a32c18f5a65555bbf612980565b1115613d7f577320e12a1f859b3feae5fb2a0a32c18f5a65555bbf600260006101000a81548173ffffffffffffffffffffffffffffffffffffffff021916908373ffffffffffffffffffffffffffffffffffffffff16021790555060019050613e07565b6000613d9e7351efaf4c8b3c9afbd5ab9f4bbc82784ab6ef8faa612980565b1115613e02577351efaf4c8b3c9afbd5ab9f4bbc82784ab6ef8faa600260006101000a81548173ffffffffffffffffffffffffffffffffffffffff021916908373ffffffffffffffffffffffffffffffffffffffff16021790555060019050613e07565b600090505b90565b6000806001905082845114613e1e57600080fd5b60008090505b83811015613eae57848181518110613e3857fe5b602001015160f81c60f81b7effffffffffffffffffffffffffffffffffffffffffffffffffffffffffffff1916868260208110613e7157fe5b1a60f81b7effffffffffffffffffffffffffffffffffffffffffffffffffffffffffffff191614613ea157600091505b8080600101915050613e24565b50809150509392505050565b6000806000806000606060206040519080825280601f01601f191660200182016040528015613ef85781602001600182028038833980820191505090505b5090506000602089600381518110613f0c57fe5b602001015160f81c60f81b60f81c60ff16036004019050613f32898260208560006134c9565b9150606060206040519080825280601f01601f191660200182016040528015613f6a5781602001600182028038833980820191505090505b509050602282019150613fa68a60208c6001860381518110613f8857fe5b602001015160f81c60f81b60f81c60ff1603840160208460006134c9565b90506020830151945060208101519350613fc38b601b8787614a10565b80975081985050508573ffffffffffffffffffffffffffffffffffffffff16898051906020012060001c73ffffffffffffffffffffffffffffffffffffffff161415614019576001975050505050505050614071565b6140268b601c8787614a10565b80975081985050508573ffffffffffffffffffffffffffffffffffffffff16898051906020012060001c73ffffffffffffffffffffffffffffffffffffffff16149750505050505050505b9392505050565b6000806060600285600186018151811061408e57fe5b602001015160f81c60f81b60f81c60ff16016040519080825280601f01601f1916602001820160405280156140d25781602001600182028038833980820191505090505b5090506140e4858583518460006134c9565b506060604080519080825280601f01601f19166020018201604052801561411a5781602001600182028038833980820191505090505b50905061412d86600460408460006134c9565b50606060626040519080825280601f01601f1916602001820160405280156141645781602001600182028038833980820191505090505b509050600160f81b8160008151811061417957fe5b60200101907effffffffffffffffffffffffffffffffffffffffffffffffffffffffffffff1916908160001a9053506141ba876041880360418460016134c9565b5060606040518060400160405280602081526020017ffd94fa71bc0ba10d39d464d0d8f465efeef0a2764e3887fcc9df41ded20f505c815250905061420581600060208560426134c9565b506142ae6002836040518082805190602001908083835b6020831061423f578051825260208201915060208101905060208303925061421c565b6001836020036101000a038019825116818451168082178552505050505050905001915050602060405180830381855afa158015614281573d6000803e3d6000fd5b5050506040513d602081101561429657600080fd5b81019080805190602001909291905050508585613eba565b9450846142c35760009550505050505061448a565b6060604051806060016040528060408152602001614fd2604091399050606060426040519080825280601f01601f1916602001820160405280156143165781602001600182028038833980820191505090505b50905060fe60f81b8160008151811061432b57fe5b60200101907effffffffffffffffffffffffffffffffffffffffffffffffffffffffffffff1916908160001a90535061436a8a600360418460016134c9565b50606060028b60458151811061437c57fe5b602001015160f81c60f81b60f81c60ff16016040519080825280601f01601f1916602001820160405280156143c05781602001600182028038833980820191505090505b5090506143d38b604483518460006134c9565b5061447c6002836040518082805190602001908083835b6020831061440d57805182526020820191506020810190506020830392506143ea565b6001836020036101000a038019825116818451168082178552505050505050905001915050602060405180830381855afa15801561444f573d6000803e3d6000fd5b5050506040513d602081101561446457600080fd5b81019080805190602001909291905050508285613eba565b975087985050505050505050505b92915050565b60008073ffffffffffffffffffffffffffffffffffffffff16600260009054906101000a900473ffffffffffffffffffffffffffffffffffffffff1673ffffffffffffffffffffffffffffffffffffffff16148061451857506000614516600260009054906101000a900473ffffffffffffffffffffffffffffffffffffffff16612980565b145b1561452957614527600061298b565b505b600260009054906101000a900473ffffffffffffffffffffffffffffffffffffffff1673ffffffffffffffffffffffffffffffffffffffff166338cc48316040518163ffffffff1660e01b8152600401602060405180830381600087803b15801561459357600080fd5b505af11580156145a7573d6000803e3d6000fd5b505050506040513d60208110156145bd57600080fd5b810190808051906020019092919050505073ffffffffffffffffffffffffffffffffffffffff16600160009054906101000a900473ffffffffffffffffffffffffffffffffffffffff1673ffffffffffffffffffffffffffffffffffffffff161461470857600260009054906101000a900473ffffffffffffffffffffffffffffffffffffffff1673ffffffffffffffffffffffffffffffffffffffff166338cc48316040518163ffffffff1660e01b8152600401602060405180830381600087803b15801561468c57600080fd5b505af11580156146a0573d6000803e3d6000fd5b505050506040513d60208110156146b657600080fd5b8101908080519060200190929190505050600160006101000a81548173ffffffffffffffffffffffffffffffffffffffff021916908373ffffffffffffffffffffffffffffffffffffffff1602179055505b6000600160009054906101000a900473ffffffffffffffffffffffffffffffffffffffff1673ffffffffffffffffffffffffffffffffffffffff16632ef3accc86856040518363ffffffff1660e01b81526004018080602001838152602001828103825284818151815260200191508051906020019080838360005b8381101561479f578082015181840152602081019050614784565b50505050905090810190601f1680156147cc5780820380516001836020036101000a031916815260200191505b509350505050602060405180830381600087803b1580156147ec57600080fd5b505af1158015614800573d6000803e3d6000fd5b505050506040513d602081101561481657600080fd5b81019080805190602001909291905050509050823a02670de0b6b3a764000001811115614849576000801b9150506149ef565b606061485485614a54565b9050600160009054906101000a900473ffffffffffffffffffffffffffffffffffffffff1673ffffffffffffffffffffffffffffffffffffffff1663c55c1cb68360008985896040518663ffffffff1660e01b8152600401808581526020018060200180602001848152602001838103835286818151815260200191508051906020019080838360005b838110156148f95780820151818401526020810190506148de565b50505050905090810190601f1680156149265780820380516001836020036101000a031916815260200191505b50838103825285818151815260200191508051906020019080838360005b8381101561495f578082015181840152602081019050614944565b50505050905090810190601f16801561498c5780820380516001836020036101000a031916815260200191505b5096505050505050506020604051808303818588803b1580156149ae57600080fd5b505af11580156149c2573d6000803e3d6000fd5b50505050506040513d60208110156149d957600080fd5b8101908080519060200190929190505050925050505b9392505050565b8060039080519060200190614a0c929190614e84565b5050565b60008060008060405188815287602082015286604082015285606082015260208160808360006001610bb8f192508051915050818193509350505094509492505050565b6060614a5e614ad4565b614a66614f04565b614a7281610400614ae0565b614a7b81614b2a565b60008090505b8351811015614abd57614ab0848281518110614a9957fe5b602002602001015183614b3890919063ffffffff16565b8080600101915050614a81565b50614ac781614b5d565b8060000151915050919050565b60405180590338823950565b6000819050600060208281614af157fe5b0614614b0a5760208181614b0157fe5b06602003810190505b808360200181815250506040518084526000815281810160405250505050565b614b35816004614b6b565b50565b614b458260028351614b8c565b614b588183614ccc90919063ffffffff16565b505050565b614b68816007614b6b565b50565b614b88601f60058360ff16901b1783614d7790919063ffffffff16565b5050565b60178111614bb857614bb38160058460ff16901b60ff161784614d7790919063ffffffff16565b614cc7565b60ff8111614bf957614bdd601860058460ff16901b1784614d7790919063ffffffff16565b614bf381600185614db79092919063ffffffff16565b50614cc6565b61ffff8111614c3b57614c1f601960058460ff16901b1784614d7790919063ffffffff16565b614c3581600285614db79092919063ffffffff16565b50614cc5565b63ffffffff8111614c7f57614c63601a60058460ff16901b1784614d7790919063ffffffff16565b614c7981600485614db79092919063ffffffff16565b50614cc4565b67ffffffffffffffff8111614cc357614cab601b60058460ff16901b1784614d7790919063ffffffff16565b614cc181600885614db79092919063ffffffff16565b505b5b5b5b5b505050565b614cd4614f04565b82602001518360000151518351011115614d0457614d03836002614cfd86602001518651614e1e565b02614e3a565b5b60008060008451905085518051602081830101945086518101825260208701935050505b60208110614d4b5781518352602083019250602082019150602081039050614d28565b60006001826020036101000a039050801983511681855116818117865250508694505050505092915050565b81602001516001836000015151011115614d9d57614d9c826002846020015102614e3a565b5b815180516020818301018381536001820183525050505050565b614dbf614f04565b836020015184600001515183011115614ded57614dec846002614de6876020015186614e1e565b02614e3a565b5b60006001836101000a0390508451805184818301018684198251161781528582018352505050849150509392505050565b600081831115614e3057829050614e34565b8190505b92915050565b606082600001519050614e4d8383614ae0565b614e578382614ccc565b50505050565b60405180608001604052806004905b6060815260200190600190039081614e6c5790505090565b828054600181600116156101000203166002900490600052602060002090601f016020900481019282601f10614ec557805160ff1916838001178555614ef3565b82800160010185558215614ef3579182015b82811115614ef2578251825591602001919060010190614ed7565b5b509050614f009190614f1e565b5090565b604051806040016040528060608152602001600081525090565b614f4091905b80821115614f3c576000816000905550600101614f24565b5090565b9056fe4f776e61626c653a206e6577206f776e657220697320746865207a65726f20616464726573734d696e696d756d206265742068617320746f2062652061626f766520302e30303120455448536166654d6174683a206d756c7469706c69636174696f6e206f766572666c6f774e6f7420656e6f7567682062616c616e636520696e2074686520636f6e74726163747fb956469c5c9b89840d55b43537e66a98dd4811ea0a27224272c2e5622911e8537a2f8e86a46baec82864e98dd01e9ccc2f8bc5dfc9cbe5a91a290498dd96e4a265627a7a72315820065736ce44f7243d23b9b6855ef342cd9d886329f7707c382e7b8f25d9291ccf64736f6c63430005100032",
  "source": "// SPDX-License-Identifier: MIT\r\npragma solidity >=0.5.0 <0.7.0;\r\n\r\nimport '../node_modules/@openzeppelin/contracts/math/SafeMath.sol';\r\nimport '../node_modules/@openzeppelin/contracts/ownership/Ownable.sol';\r\nimport './provableAPI.sol';\r\n\r\ncontract FlipCoin is Ownable, usingProvable{\r\n    \r\n    using SafeMath for uint;\r\n    \r\n    address public contractOwner;\r\n    uint public minimumBet;\r\n    uint public contractBalance;\r\n    bytes32 public queryId;\r\n    uint private constant NUM_RANDOM_BYTES_REQUESTED = 1;\r\n\r\n\r\n    struct Bet {\r\n        address player;\r\n        uint amount;\r\n        uint choice;\r\n        bool betFinished;\r\n        uint queryPrice;\r\n    }\r\n\r\n    mapping (bytes32 => Bet) public bets;\r\n    mapping (address => uint) public playersBalance;\r\n\r\n    constructor () public {\r\n        contractOwner = msg.sender;\r\n        minimumBet = 1000000000000000;\r\n        provable_setProof(proofType_Ledger);\r\n    }\r\n\r\n    event LogNewProbableQuery(address indexed player, \r\n                                uint indexed amount,  \r\n                                uint indexed choice);\r\n    event generatedRandomNumber(uint indexed random_Number);\r\n    event betResult(address indexed player, \r\n                    uint indexed amount, \r\n                    bool betStatus,\r\n                    bool indexed result);\r\n    event contractFunded(address indexed owner, uint indexed amount);\r\n    event playerWithdraw(address indexed player, uint indexed amount);\r\n    event contractWithdraw(address indexed owner, uint indexed amount);\r\n    event proofVerificationFail(bytes32 indexed Id);\r\n\r\n\r\n    function createBet (uint _choice) public payable{\r\n        require (_choice == 0 || _choice == 1, 'You have to choose Head or Tail');\r\n        require (msg.value >= minimumBet, 'Minimum bet has to be above 0.001 ETH');\r\n        require (contractBalance >= msg.value, 'Not enough balance in the contract');\r\n        \r\n        uint QUERY_EXECUTION_DELAY = 0;\r\n        uint GAS_FOR_CALLBACK = 200000;\r\n\r\n        queryId = provable_newRandomDSQuery(QUERY_EXECUTION_DELAY, NUM_RANDOM_BYTES_REQUESTED, GAS_FOR_CALLBACK);\r\n        contractBalance = contractBalance.sub(msg.value);\r\n\r\n        if(_choice == 0){\r\n            bets[queryId] = Bet(msg.sender, msg.value, 0, false, provable_getPrice(\"Random\"));\r\n            emit LogNewProbableQuery(msg.sender, msg.value, 0);\r\n        } else {\r\n            bets[queryId] = Bet(msg.sender, msg.value, 1, false, provable_getPrice(\"Random\"));\r\n            emit LogNewProbableQuery(msg.sender, msg.value, 1);\r\n        }\r\n    }\r\n\r\n    function __callback (\r\n        bytes32 _queryId, \r\n        string memory _result, \r\n        bytes memory _proof) public {\r\n        require (msg.sender == provable_cbAddress());\r\n\r\n        if (provable_randomDS_proofVerify__returnCode(_queryId, _result, _proof) == 0){\r\n            uint randomNumber = uint(keccak256(abi.encodePacked(_result))) % 2;\r\n            assert(randomNumber == 0 || randomNumber == 1);\r\n            emit generatedRandomNumber(randomNumber);\r\n            address _player = bets[_queryId].player;\r\n            uint _amount = bets[_queryId].amount;\r\n            uint _choice = bets[_queryId].choice;\r\n            uint _oracleCost = bets[_queryId].queryPrice;\r\n            uint _totalAmount = _amount.mul(2).sub(_oracleCost);\r\n            assert(_totalAmount <= _amount.mul(2));\r\n            _checkResult(_queryId, _player, _totalAmount, randomNumber, _choice);\r\n        }\r\n        else {\r\n            emit proofVerificationFail(_queryId);\r\n        }\r\n    }\r\n\r\n    function _checkResult (\r\n        bytes32 _queryId,\r\n        address _player,\r\n        uint _totalAmount,\r\n        uint _randomNumber,\r\n        uint _choice) public {\r\n        require(bets[_queryId].betFinished == false, 'Bet already finished');\r\n        \r\n        Bet storage bet = bets[_queryId];\r\n        bet.betFinished = true;\r\n\r\n        //whoever wins pays the Oracle fee\r\n        if (_randomNumber == 0 && _choice == 0) {\r\n            playersBalance[_player] = playersBalance[_player].add(_totalAmount);\r\n            emit betResult(_player, _totalAmount, bets[_queryId].betFinished, true);\r\n        }\r\n        else if (_randomNumber == 0 && _choice == 1) {\r\n            contractBalance = contractBalance.add(_totalAmount);\r\n            emit betResult(_player, _totalAmount, bets[_queryId].betFinished, false);\r\n        }\r\n        else if (_randomNumber == 1 && _choice == 1) {\r\n            playersBalance[_player] = playersBalance[_player].add(_totalAmount);\r\n            emit betResult(_player, _totalAmount, bets[_queryId].betFinished, true);\r\n        }\r\n        else {\r\n            contractBalance = contractBalance.add(_totalAmount);\r\n            emit betResult(_player, _totalAmount, bets[_queryId].betFinished, false);\r\n        }\r\n    }\r\n\r\n    function fundContract () public payable returns (uint){\r\n        contractBalance = contractBalance.add(msg.value);\r\n        emit contractFunded(msg.sender, msg.value);\r\n        return contractBalance;\r\n    }\r\n    \r\n    function payoutPlayer () public returns (uint){\r\n        require(playersBalance[msg.sender] > 0, 'Not enough Balance');\r\n        uint amount = playersBalance[msg.sender];\r\n        playersBalance[msg.sender] = 0;\r\n        msg.sender.transfer(amount);\r\n        emit playerWithdraw(msg.sender, amount);\r\n        return playersBalance[msg.sender];\r\n    }\r\n    \r\n    function payoutOwner () public onlyOwner() returns (uint){\r\n        require(contractBalance >= 0, 'Contract does not have balance');\r\n        uint amount = contractBalance;\r\n        contractBalance = 0;\r\n        msg.sender.transfer(amount);\r\n        emit contractWithdraw(msg.sender, amount);\r\n        return contractBalance;\r\n    }\r\n}",
  "sourcePath": "C:/Users/urbat/Documents/Programming/fLIP_COIN/contracts/FlipCoin.sol",
  "compiler": {
    "name": "solc",
    "version": "0.5.16+commit.9c3226ce.Emscripten.clang"
  },
  "schemaVersion": "3.3.4",
  "updatedAt": "2021-06-01T19:26:00.850Z",
  "networkType": "ethereum",
  "devdoc": {
    "methods": {
      "__callback(bytes32,string)": {
        "details": "The following `__callback` functions are just placeholders ideally     meant to be defined in child contract when proofs are used.     The function bodies simply silence compiler warnings."
      },
      "isOwner()": {
        "details": "Returns true if the caller is the current owner."
      },
      "owner()": {
        "details": "Returns the address of the current owner."
      },
      "renounceOwnership()": {
        "details": "Leaves the contract without owner. It will not be possible to call `onlyOwner` functions anymore. Can only be called by the current owner.     * NOTE: Renouncing ownership will leave the contract without an owner, thereby removing any functionality that is only available to the owner."
      },
      "transferOwnership(address)": {
        "details": "Transfers ownership of the contract to a new account (`newOwner`). Can only be called by the current owner."
      }
    }
  },
  "userdoc": {
    "methods": {}
  }
}